:020000040800F2
:1000000000500020653E0008BD100008C110000827
:10001000C5100008C9100008CD100008000000003D
:10002000000000000000000000000000D1100008E7
:10003000D510000800000000D9100008DD100008ED
:10004000AD3E0008AD3E0008AD3E0008AD3E0008E4
:10005000AD3E0008AD3E0008AD3E0008AD3E0008D4
:10006000AD3E0008AD3E0008AD3E0008AD3E0008C4
:10007000AD3E0008AD3E0008AD3E0008AD3E0008B4
:10008000AD3E0008AD3E0008AD3E0008AD3E0008A4
:10009000E9100008AD3E0008AD3E0008AD3E000886
:1000A000AD3E0008AD3E0008AD3E0008AD3E000884
:1000B000AD3E0008AD3E0008AD3E0008AD3E000874
:1000C000AD3E0008AD3E0008AD3E0008AD3E000864
:1000D000AD3E0008AD3E0008AD3E0008AD3E000854
:1000E000AD3E0008AD3E0008AD3E00080000000037
:1000F0000000000000000000000000000000000000
:0C01000000000000000000005FF808F1A3
:10010C00044B05481B1A062B02D9044B03B11847A4
:10011C00704700BFC7010020C40100200000000090
:10012C0005490648091A891001EBD171491002D012
:10013C00034B03B118477047C4010020C4010020D1
:10014C000000000010B5064C237843B9FFF7D8FF28
:10015C00044B13B10448AFF300800123237010BD8E
:10016C00C401002000000000084F000808B5084B2F
:10017C001BB108480849AFF300800848036813B95D
:10018C00BDE80840CCE7064B002BF9D09847F7E7C1
:10019C0000000000084F0008C8010020C401002026
:1001AC000000000010F8012B11F8013B012A28BFB8
:1001BC009A42F7D0D01A704784B00F4B9A6942F02C
:1001CC0020029A619A6902F020020192019A9A69BE
:1001DC0042F008029A619A6902F008020292029AAD
:1001EC009A6942F004029A619B6903F00403039339
:1001FC00039B04B0704700BF00100240FEE700BF35
:10020C0008B50B480B4B03600B4B4360002383601A
:10021C00C3604FF48042026143618361C361036236
:10022C0002F078F918B10548D121FFF7E7FF08BDB6
:10023C001804002000540040A0860100344F000830
:10024C0008B50B480B4B03600B4B436000238360DA
:10025C00C3604FF48042026143618361C3610362F6
:10026C0002F058F918B10548E521FFF7C7FF08BDA2
:10027C006C04002000580040A0860100344F000898
:10028C0008B50B480B4B03604FF4E133436000237C
:10029C008360C36003610C2242618361C36102F01D
:1002AC00CBFA18B10448F821FFF7A8FF08BD00BF2E
:1002BC00C004002000380140344F000800B595B050
:1002CC0001220A924FF480330B9300210C910E9271
:1002DC000222119212934FF4E01313930AA802F026
:1002EC003DFB18B11A489E21FFF788FF0F23059399
:1002FC0002210691002307934FF48063089309931E
:10030C0005A802F063FD18B11148AC21FFF776FF88
:10031C00102301930023049301A802F03FFE18B1AF
:10032C000B48B321FFF76AFF02F012FE094BA3FB47
:10033C000030800902F0FEFF042003F011F84FF0AA
:10034C00FF3000210A4602F0B7FF15B05DF804FB40
:10035C00344F0008D34D621008B502F0C5FA0C4BAF
:10036C001B689868002102220B4603F007FEFFF77A
:10037C00A5FFFFF721FFFFF743FFFFF761FFFFF733
:10038C007FFF00F063FC002000F0CEFBFBE700BF1A
:10039C00C0010020044B03F5B0725A609A60002231
:1003AC0083F86021704700BF400B002008B5014660
:1003BC00014803F0B7FD08BD404F000810B5064CCE
:1003CC000648FFF7F3FF2068FFF7F0FF54F8083FEB
:1003DC00002BF5D1002010BD00050020444F000873
:1003EC0038B50546124B1C78124800EB0420294600
:1003FC00FFF7D8FEA8B1104B03EB042393F860323F
:10040C003BB10134E4B20A4B1C70042C01D900221C
:10041C001A70074B1878074B03EB0020294603F0A2
:10042C0043FE034B1A78044B83F8602738BD00BF9A
:10043C00E4010020A00D0020400B002038B50D4633
:10044C0000E001300378202BFBD00DB100241BE021
:10045C00002BFBD038BD5B2B09D15D2103F016FEC0
:10046C00013011D10B48FFF7A1FF002038BD01303E
:10047C00202B09D100E001300378202BFBD0013474
:10048C00E4B2AC4200D11BB90378002BE3D10020BD
:10049C0038BD00BF504F0008F8B504460D46037830
:1004AC00232B55D0002955D0002855D0262B55D0BC
:1004BC005B2B25D114F8013F202BFBD02B4610E0F1
:1004CC00013413F8012F202A00D052B92278202AA7
:1004DC0004D07C2A02D05D2A00D012B9EB1A234436
:1004EC0047E021781A789142EAD000E00134237871
:1004FC005D2B01D07C2BF9D15D2BDBD1002338E0B7
:10050C00202103F0C3FD064620B920462946FFF7FB
:10051C0049FE28B356B1371B204629463A4603F00C
:10052C00D3FD18B9EB5D202B1CD0EBB1F6B92846E6
:10053C002D2103F0ABFD0346D8B1204603F0BCFDE2
:10054C0002462046294603F0BFFD88B1002310E087
:10055C000B460EE000230CE000230AE00B4608E0FB
:10056C00234606E0234604E0234602E0002300E095
:10057C0023461846F8BD00BF2DE9F04180461B4FBD
:10058C003D68444622E0232E07D128460121FFF77F
:10059C0055FF10B93846BDE8F08120460121FFF720
:1005AC004DFF044628460121FFF748FF054604E0AD
:1005BC0020460121FFF742FF044614B123782D2B6E
:1005CC00F6D01DB914B93846BDE8F0812E78232E2B
:1005DC00D9D028462146FFF75FFF0028D3D157F822
:1005EC00083F002BCCD1BDE8F08100BF00050020F6
:1005FC002DE9F84304460F46364A1346002143F8CA
:10060C00601B13612046202103F040FD054668BBAA
:10061C0020463149042203F057FD18B32D4E3368A0
:10062C00043356F82300214603F03EFD33685A1C70
:10063C003260043356F82380204603F03DFD00233E
:10064C0008F80030D6F8008008F1030356F8239020
:10065C00204603F031FD0130484408F1040846F807
:10066C0028002CE0631C47F8043B28E020461A497C
:10067C00042203F029FDF0B1164E3368C4EB0508D3
:10068C00043356F823002146424603F036FD336806
:10069C005A1C3260043356F82330002203F8082029
:1006AC003168CB1C56F8233008F101021344043195
:1006BC0046F8213002E0013447F8044B6C1C002D45
:1006CC00A0D1044A1368043352F8233000221A7064
:1006DC00BDE8F883400B0020944F000810B58AB099
:1006EC000446002300930193029303930493059310
:1006FC000693079308930993FFF772FE2046694609
:10070C00FFF776FF2046FFF737FF68B143680949CA
:10071C0051F8100B984718B10748FFF747FE06E051
:10072C000648FFF743FE02E00548FFF73FFE0AB01C
:10073C0010BD00BF400B00209C4F0008B84F0008B4
:10074C00D04F000808B503F005FC08BD244B9A688F
:10075C0003F5B0739A4241D030B5C1B0204B9A68C2
:10076C0003F5B0739A4206D11E48FFF71FFE1C4AD0
:10077C009368013393601A4DAC686846214603F0C8
:10078C0093FC013CAC606B68013B6B60684603F00A
:10079C0093FC421C2046694603F0B0FB1248FFF75D
:1007AC0005FE6846FFF702FE1048FFF7FFFD68469E
:1007BC0003F082FC84B204E00820FFF7C3FF013C85
:1007CC00A4B2002CF8D1064B9A6803F5B0739A4288
:1007DC0002D11378202BC1D041B030BD704700BF7F
:1007EC00400B00202050000824500008285000081E
:1007FC0038B503E0013B294A82F86037274A92F862
:10080C006037194602EB032292F860220AB9002BDA
:10081C00F0D1224B03EB012191F86032002B3BD03D
:10082C001E4B986803F048FC044603E02020FFF7B9
:10083C0089FF013C002CF9DC194803F03DFC04460F
:10084C0003E01848FFF7B2FD013C002CF9DC134C17
:10085C0094F8601704EB012104F5B075284601F5F6
:10086C00187103F021FC94F8600704EB002000F5EC
:10087C00187003F021FC00F5B0702044A06060609B
:10088C002846FFF793FD94F860375A1E84F86027CA
:10089C0013B9042284F8602738BD00BF400B002038
:1008AC00A00C00202450000808B54138032830D88B
:1008BC00DFE800F002060A1C0020FFF799FF08BDD4
:1008CC000120FFF795FF08BD124B9B681B7803B303
:1008DC001B20FFF737FF5B20FFF734FF4320FFF7A8
:1008EC0031FF0C4A93680133936008BD094B9A6839
:1008FC0003F5B0739A420CD01B20FFF723FF5B204B
:10090C00FFF720FF4420FFF71DFF024A9368013BCD
:10091C00936008BD400B002070B5C0B00446202881
:10092C000BD11B4B9B681A78202A2FD0194A934263
:10093C002CD013F8013C202B28D0154DAE686846FE
:10094C00314603F0B1FB684603F0B6FB421C701C49
:10095C00694603F0D3FAAB681C702046FFF7F2FE31
:10096C006846FFF723FD684603F0A6FB84B204E05B
:10097C000820FFF7E7FE013CA4B2002CF8D1044B91
:10098C009A6801329A605A6801325A6040B070BD60
:10099C00400B0020A00C002010B4074C2388074A01
:1009AC0042F8330002EBC30251600133238020462E
:1009BC005DF8044B704700BFE201002000050020E9
:1009CC0010B50C4B5B669B660B4C2046002140F22D
:1009DC00647203F09EFA094800214FF4C86203F0D8
:1009EC0098FA074BE360FFF7D5FC06480649FFF77A
:1009FC00D3FF10BDA4120020400B002000050020E6
:100A0C002C50000838500008C903000800E01846B4
:100A1C00094B5A6E9B6E9A4209D012F8010B064B89
:100A2C0043F8642F9A4206D1034B5B667047431E12
:100A3C009BB20028EBD17047A412002008B5FFF739
:100A4C00E5FF08BD10B562E00A2B01D00D2B29D1B2
:100A5C000022324B1A70324B5A6803F5B0739A422B
:100A6C0005D0A3F5B07393F86031202B04D12C4B37
:100A7C00D868FFF79BFC4AE0531E29494B6012F8DB
:100A8C00013C202B02D1002302F8013C254C2046CE
:100A9C00FFF724FEFFF77EFCA4F5B074E068FFF7C7
:100AAC0085FC34E0A3F10802D2B2172A16D8002133
:100ABC001A4A1170082B02D1FFF748FE27E01B2BB6
:100ACC0025D14FF6FF70FFF7B9FF5B281FD14FF60A
:100ADC00FF70FFF7B3FFFFF7E7FE18E0A3F120026A
:100AEC00D2B25E2A13D8232B03D00C4A1278012AD7
:100AFC0003D10122094B1A7009E0094A516802F529
:100B0C00B0728A1AFE2A02DC1846FFF705FF002095
:100B1C00FFF794FF0346002896D110BDE00100209A
:100B2C00400B0020A00C002008B5FFF749FFFFF791
:100B3C0089FFFCE770B505460C46244B986E5A6E3F
:100B4C00904222D3021964339A420FD82946A2B29A
:100B5C0003F0D3FA1D4B9A6E22449A6625446433F3
:100B6C009A422ED1643B9B6600242BE0184E321A1D
:100B7C00294692B203F0C1FAA6F164027368F11A25
:100B8C000D441C44A41B92661CE0013A121AA242AA
:100B9C000AD32946A2B203F0B0FA25440B4A936E4D
:100BAC001C44946600240DE0294692B203F0A5FA89
:100BBC00064A536E013B916E591A0D4493660024FC
:100BCC0000E00024002CB8D170BD00BFA41200209E
:100BDC0008130020002300E001339342FCDB104695
:100BEC00704700BF10B51446084691B24FF47A72A4
:100BFC0000F028FA204610BD08B50B4B1B6813B942
:100C0C000A4A094B1A60084B1A68131869468B423A
:100C1C0006D903F047F90C2303604FF0FF3008BDF1
:100C2C0001490B60104608BDE8010020702300202C
:100C3C004FF0FF30704700BF4FF400534B60002063
:100C4C00704700BF012070470020704710B5094C59
:100C5C0020460949002202F0BFFB2046074902F05A
:100C6C00D3FB2046064903F0AFF8204602F0D4FB34
:100C7C0010BD00BF101300200000002094000020C5
:100C8C003400002002680E4B9A4217D100B583B095
:100C9C0003F5DA33DA6942F40002DA61DB6903F452
:100CAC0000030193019B142000210A4602F004FB6F
:100CBC00142002F033FB03B05DF804FB704700BF57
:100CCC00005C004008B50146D0F85C0401F22C41F0
:100CDC0002F0BEFB08BD00BF08B500EB4113D0F815
:100CEC005C04D3F83C2202F0E1FB08BD08B500EB34
:100CFC004113D0F85C04DA6B02F008FC08BD00BFAD
:100D0C0008B5D0F85C0402F087FC08BD10B50446A9
:100D1C00D0F85C04012102F06BFCD4F85C0402F006
:100D2C0047FC10BD10B50446D0F85C0402F064FC1E
:100D3C00A36923B1024A136943F00603136110BD82
:100D4C0000ED00E008B5D0F85C0402F05FFC08BDD3
:100D5C0010B504461F48C0F85C44C4F820021E4B72
:100D6C00036008234360022383600323C3600023D2
:100D7C008361C361036200F075FA20B117484FF428
:100D8C009771FFF73BFAD4F8200200210A4618238A
:100D9C0000F0BEFED4F8200280210022582300F07F
:100DAC00B7FED4F8200281210022C02300F0B0FE4F
:100DBC00D4F82002012100224FF4887300F0A8FE21
:100DCC00D4F82002822100224FF4807300F0A0FEA0
:100DDC00002010BD34150020005C0040405000087D
:100DEC0008B5D0F8200200F0ABFA10B1022802D0FE
:100DFC0003E0002008BD012008BD022008BD00BF93
:100E0C0010B51446D0F820021A46234600F0C4FA56
:100E1C0010B1022802D003E0002010BD012010BD4B
:100E2C00022010BD08B5D0F8200200F0DFFA10B196
:100E3C00022802D003E0002008BD012008BD0220DA
:100E4C0008BD00BF08B5D0F8200200F00BFE10B1B1
:100E5C00022802D003E0002008BD012008BD0220BA
:100E6C0008BD00BF08B5D0F8200200F029FE10B173
:100E7C00022802D003E0002008BD012008BD02209A
:100E8C0008BD00BFD0F8202211F0800F06D001F071
:100E9C007F0302EB431191F82A00704701F07F01A8
:100EAC0002EB411191F82A02704700BF08B5D0F847
:100EBC00200200F05DFA10B1022802D003E00020FD
:100ECC0008BD012008BD022008BD00BF08B5D0F840
:100EDC00200200F0DBFA10B1022802D003E000205F
:100EEC0008BD012008BD022008BD00BF08B5D0F820
:100EFC00200200F0A3FA10B1022802D003E0002077
:100F0C0008BD012008BD022008BD00BF08B5D0F8FF
:100F1C00200200F0B3FA08BD00487047EC01002035
:100F2C00704700BF704700BF12230B80004870470A
:100F3C002000002004230B80004870471C00002078
:100F4C0008B50A4620B90548054902F0E3FD03E05F
:100F5C000248034902F0DEFD014808BD505000086C
:100F6C009419002010B50A46034C0448214602F09F
:100F7C00D1FD204610BD00BF941900206850000818
:100F8C0008B50A4620B90548054902F0C3FD03E03F
:100F9C000248034902F0BEFD014808BD7C50000820
:100FAC009419002008B50A4620B90548054902F0F5
:100FBC00B1FD03E00248034902F0ACFD014808BD55
:100FCC008C5000089419002008B50A4620B9054831
:100FDC00054902F09FFD03E00248034902F09AFD27
:100FEC00014808BD98500008941900200020704753
:100FFC000020704770B504460E46074D2846214622
:10100C0002F0F2FE284602F00DFF20463168FFF791
:10101C0091FD002070BD00BF1013002010B5064CD0
:10102C0020460649002202F0D7FE2046044902F071
:10103C00DBFE002010BD00BF101300207C1F002021
:10104C00941B00202DE9F84380460F461546174B9C
:10105C00D3F8186201F066FC04461FE0D6F814328F
:10106C00E3B9402F0ED9DFF8449048464146402260
:10107C0002F0B2FE484602F0BDFE403FBFB208F19E
:10108C0040080BE0094C204641463A4602F0A4FECB
:10109C00204602F0AFFE0020BDE8F88301F042FCD0
:1010AC00001BA842DAD30220BDE8F88310130020FD
:1010BC00704700BFFEE700BFFEE700BFFEE700BFC2
:1010CC00FEE700BF704700BF704700BF704700BF0E
:1010DC0008B501F01BFC02F055F908BD08B5024833
:1010EC0000F012FC08BD00BF3415002000B583B021
:1010FC00244B9A6942F001029A619A6902F001024A
:10110C000092009ADA6942F08052DA61DB6903F0EE
:10111C0080530193019B032002F0BCF86FF00B008D
:10112C0000210A4602F0C8F86FF00A0000210A46B6
:10113C0002F0C2F86FF0090000210A4602F0BCF878
:10114C006FF0040000210A4602F0B6F86FF00300BD
:10115C0000210A4602F0B0F86FF0010000210A46A7
:10116C0002F0AAF84FF0FF3000210A4602F0A4F872
:10117C00054A536823F0E06343F00073536003B0F7
:10118C005DF804FB001002400000014000B587B080
:10119C000368194A934214D1C02302931223039378
:1011AC0003230593154802A901F082FF144BDA6959
:1011BC0042F40012DA61DB6903F400130093009B24
:1011CC0017E0104A934214D14FF440630293122358
:1011DC00039303230593094802A901F069FF084B07
:1011EC00DA6942F48002DA61DB6903F4800301936B
:1011FC00019B07B05DF804FB00540040000C01405B
:10120C0000100240005800400268144B9A4224D14E
:10121C0010B586B003F558439A6942F480429A613E
:10122C009B6903F480430193019B4FF40073029379
:10123C000223039303230593094C204602A901F0D2
:10124C0037FF4FF4806302930023039304932046EB
:10125C0002A901F02DFF06B010BD70470038014007
:10126C0000080140002867D0F0B587B0044690F81C
:10127C00293413F0FF0F04D1002380F82834FFF732
:10128C0001FD032384F82934206800F06FFC254607
:10129C0055F8107B6E460FCD0FC62B683360231D9F
:1012AC000ECB384600F050FC2068002100F068FCA2
:1012BC00002310E004EB4312012182F8291082F87C
:1012CC0028309386002182F82B109163D1639A1CED
:1012DC005201A15001330E2BECD9002312E004EB88
:1012EC004311002281F8292281F828328B8681F85B
:1012FC002B22C1F83822C1F83C2203F1120149011A
:10130C00625001330E2BEAD9254655F8107B6E46F8
:10131C000FCD0FC62B683360231D0ECB384600F063
:10132C0031FC002584F82450012384F829342068EA
:10133C0000F052FF284601E00120704707B0F0BDD5
:10134C0090F82834012B10D010B50446012180F8F8
:10135C002814FFF7E7FD206800F03CFF206800F040
:10136C00FBFB002084F8280410BD0220704700BF4E
:10137C0010B5044690F82834012B0BD0012380F8CB
:10138C00283480F82410006800F01EFF002084F838
:10139C00280410BD022010BD38B50546C8B210F0A7
:1013AC00800F05D001F07F0405EB4414283405E0D0
:1013BC0001F07F0405EB441404F50A7401F07F017D
:1013CC002170C00960702261E37095F82834012BFC
:1013DC000AD0012385F828342868214600F0E8FB60
:1013EC00002085F8280438BD022038BD10B504460D
:1013FC00CAB212F0800F05D001F07F0300EB43134B
:10140C00283305E001F07F0300EB431303F50A7367
:10141C0001F07F011970D2095A7094F82824012A1E
:10142C000AD0012284F828242068194600F05EFDB9
:10143C00002084F8280410BD022010BD70B501F006
:10144C007F056C0104F50A7101440444C4F83C2284
:10145C0005F112025201861883500023736084F840
:10146C00293284F828521DB9006800F0D3FE02E03E
:10147C00006800F0CFFE002070BD00BF01F00F012E
:10148C0000EB4110B0F84402704700BF70B501F09A
:10149C007F056C0104F1280101440444E263AA1C99
:1014AC0052018618835000237360012384F829307D
:1014BC0084F828501DB9006800F0ACFE02E000680A
:1014CC0000F0A8FE002070BD70B582B00446002369
:1014DC00ADF80630ADF8043008E2BDF8065015F052
:1014EC000F0540F0C580BDF8063003F010039BB229
:1014FC0093BB03889BB223F4E14323F070039BB2AC
:10150C0003802168B1F850309AB294F8283002EB7D
:10151C00C30301EB4303D3F80434C3F3090363643B
:10152C00E26B1344E36320460021FFF7DFFB94F8E2
:10153C00243013F0FF0F00F0D981236C002B40F006
:10154C00D581226894F8243043F08003A2F84C3003
:10155C00002384F82430C9E103889BB2ADF8043031
:10156C00BDF8043003F400639BB2FBB1B0F850300B
:10157C009BB294F8282203EBC20300EB4303D3F88D
:10158C000C34C3F30903C4F8443204F22C41B4F80C
:10159C002C2200F0AFFF2268138823F070031B0588
:1015AC001B0D13802046FFF78DFB9FE1BDF8043027
:1015BC001BB2002B80F29A81038823F070031B0569
:1015CC001B0D03802068B0F850309BB294F8282291
:1015DC0003EBC20300EB4303D3F80C34C3F309034E
:1015EC00C4F8443263B1D4F83C12B4F82C2200F0A5
:1015FC0081FFD4F83C22D4F844321344C4F83C3272
:10160C0020460021FFF768FB2268B2F850309BB2ED
:10161C00063302EB4303D4F838123E290ED9C1F33A
:10162C004F1211F01F0F01D1013A92B26FEAC26250
:10163C006FEA524292B2C3F800240AE0C1F34F029F
:10164C0011F0010F01D0013292B2920292B2C3F8A2
:10165C000024226813889BB223F4804323F0700388
:10166C0083F4405343F4004343F0800313803DE183
:10167C00236833F825309BB2ADF80430BDF8043044
:10168C001BB2002B80F2958030F8253023F07003CC
:10169C001B051B0D20F8253004EB451393F8323253
:1016AC00DBB92068B0F850309BB204EB451292F8CD
:1016BC00282203EBC20300EB4303B3F80C64C6F31C
:1016CC000906002E50D004EB4513D3F83C12B3F8A6
:1016DC002C22334600F00EFF46E0206804EB451345
:1016EC0093F8281230F8213003F480439BB2ABB14D
:1016FC00B0F8502092B202EBC10300EB4303B3F8F5
:10170C000464C6F30906F6B104EB4513D3F83C1296
:10171C00B3F82E22334600F0EDFE14E0B0F8503052
:10172C009BB203EBC10300EB4303B3F80C64C6F3A9
:10173C00090646B104EB4513D3F83C12B3F830223A
:10174C00334600F0D7FE226804EB451393F82812B9
:10175C0032F8213023F0F0031B051B0D43F400433A
:10176C0043F0C00322F8213005F112035B01E118AC
:10177C004A6832444A6004EB4511D1F83C223244A9
:10178C00C1F83C22E3582BB104EB4511D1F83812C7
:10179C008E4207D204EB4513204693F82812FFF72C
:1017AC009BFA06E004EB4511204691F82812FFF74E
:1017BC0045FEBDF8043003F080039BB2002B00F013
:1017CC009580226832F825309BB223F4E14323F054
:1017DC0070039BB222F8253004EB451393F832309A
:1017EC00CBB92068B0F850309BB204EB451292F89C
:1017FC00282003EBC20300EB4303D3F80434C3F3F8
:10180C00090304EB45125364002B47D0D16B928D26
:10181C0000F0EAFC42E0206804EB451393F8281032
:10182C0030F8213003F040039BB29BB1B0F850204C
:10183C0092B202EBC10300EB4303D3F80434C3F3BD
:10184C00090304EB45125364BBB1D16BD28D00F08C
:10185C00CBFC12E0B0F850309BB203EBC10300EBB1
:10186C004303D3F80C34C3F3090304EB451253645C
:10187C001BB1D16B128E00F0B7FC226804EB451340
:10188C0093F8281032F8213023F0F0031B051B0DC0
:10189C0043F4404343F0800322F821302068B0F831
:1018AC0050309AB204EB451191F8283002EBC30387
:1018BC0000EB4303D3F80434C3F30903A81C400121
:1018CC0022185360CA6B1A44CA6323583BB904EB01
:1018DC004515204695F82810FFF708FA06E004EBAA
:1018EC004515204695F82810FFF7D0FD2068B0F874
:1018FC0044309BB2ADF8063013F4004F7FF4EDADDD
:10190C00002002B070BD00BF10B50446006800F0A6
:10191C0065FC10F4004F02D02046FFF7D5FD20687F
:10192C0000F05CFC10F4806F0FD02268B2F84430E9
:10193C0023F480631B041B0CA2F844302046FFF7F1
:10194C00E5F920460021FFF713FD206800F046FC66
:10195C0010F4804F08D02268B2F8443023F480434E
:10196C001B041B0CA2F84430206800F037FC10F468
:10197C00005F08D02268B2F8443023F400531B04F3
:10198C001B0CA2F84430206800F028FC10F4805F97
:10199C001DD02268B2F8403023F004031B041B0C4A
:1019AC00A2F840302268B2F8403023F008031B0440
:1019BC001B0CA2F840302046FFF7C4F92268B2F89D
:1019CC00443023F480531B041B0CA2F844302068D1
:1019DC0000F004FC10F4006F21D02268B2F8403003
:1019EC009BB243F00803A2F840302268B2F84430AE
:1019FC0023F400631B041B0CA2F844302268B2F8D9
:101A0C0040309BB243F00403A2F84030206800F051
:101A1C00E5FB10F4805F02D12046FFF783F92068C4
:101A2C0000F0DCFB10F4007F0BD02268B2F84430DD
:101A3C0023F400731B041B0CA2F844302046FFF760
:101A4C005FF9206800F0CAFB10F4807F08D0226890
:101A5C00B2F8443023F480731B041B0CA2F84430FE
:101A6C0010BD00BF38B50546CAB212F0800F05D0C4
:101A7C0001F07F0300EB4313283303E000EB411329
:101A8C0003F50A730120987001F07F041C70D209D1
:101A9C005A7095F8282482420FD085F828042868BB
:101AAC00194600F00DFB24B9286805F22C4100F012
:101ABC0099FB002085F8280438BD022038BD00BFF2
:101ACC0010B50446CAB212F0800F05D001F07F03A6
:101ADC0000EB4313283303E000EB411303F50A73C7
:101AEC000020987001F07F011970D2095A7094F897
:101AFC002824012A0AD0012284F8282420681946B7
:101B0C0000F016FB002084F8280410BD022010BD44
:101B1C0010B401F08004A4B22CB101F07F0100EBF1
:101B2C004110283003E000EB411000F50A7012B9A7
:101B3C008272838004E001228272C3801B0C0381B9
:101B4C0000205DF8044B704784B001A880E80E00BB
:101B5C00002004B0704700BFB0F840309BB243F493
:101B6C003F43A0F840300020704700BFB0F8403031
:101B7C0023F474535B045B0CA0F8403000207047D6
:101B8C000020704784B038B505AC84E80E00012302
:101B9C00A0F840300024A0F84040A0F84440A0F841
:101BAC005040FFF7D9FF2046BDE8384004B07047DD
:101BBC0010B4CB78032B35D8DFE803F002280F1BC9
:101BCC000A7830F822309BB223F4EC4323F07003F4
:101BDC0043F4007320F8223024E00A7830F82230E5
:101BEC009BB223F4EC4323F070039BB220F8223019
:101BFC0018E00A7830F822309BB223F4EC4323F03F
:101C0C00700343F4C06320F822300BE00A7830F8FC
:101C1C0022309BB223F4EC4323F0700343F4806333
:101C2C0020F822300A7830F8223023F0F0031B051C
:101C3C001B0D134343F4004343F0800320F8223080
:101C4C008B7A002B40F08A804B7883B3B0F85030FD
:101C5C009BB20A7803EBC20300EB43038A88520859
:101C6C005200C3F800240A7830F8223003F0400305
:101C7C009BB25BB130F8223023F0F0031B051B0D37
:101C8C0043F4004343F0C00320F822300A7830F8C4
:101C9C0022309BB223F4E04323F0400383F0200373
:101CAC0043F4004343F0800320F8223019E1B0F8EC
:101CBC0050309BB20A7803EBC20300EB43038A88D3
:101CCC0052085200C3F80824B0F850309BB20A787E
:101CDC0003EBC203063300EB43030C693E2C0ED915
:101CEC00C4F34F1214F01F0F01D1013A92B26FEAF4
:101CFC00C2626FEA524292B2C3F800240AE0C4F303
:101D0C004F0214F0010F01D0013292B2920292B242
:101D1C00C3F800240A7830F8223003F480439BB2D5
:101D2C005BB130F8223023F0F0031B051B0D43F49C
:101D3C00404343F0800320F822300A7830F82230F8
:101D4C009BB223F4804323F0700383F4405343F499
:101D5C00004343F0800320F82230C2E00A7830F8C8
:101D6C00223023F4F8731B051B0D43F4014343F09D
:101D7C00800320F82230B0F850309BB20A7803EB85
:101D8C00C20300EB4303CA8852085200C3F8002474
:101D9C00B0F850309BB20A7803EBC20300EB43035C
:101DAC000A8952085200C3F808244B78002B4DD1F5
:101DBC000A7830F8223003F480439BB25BB130F8E0
:101DCC00223023F0F0031B051B0D43F4404343F07A
:101DDC00800320F822300A7830F8223003F04003D8
:101DEC009BB25BB130F8223023F0F0031B051B0DC6
:101DFC0043F4004343F0C00320F822300A7830F853
:101E0C00223023F0F0031B051B0D43F4004343F079
:101E1C00C00320F822300C7830F824309BB223F425
:101E2C00804323F0700383F4405348F28002134341
:101E3C0020F82430097830F821309BB223F4E043A9
:101E4C0023F04003134320F821304AE00A7830F89D
:101E5C00223003F480439BB25BB130F8223023F084
:101E6C00F0031B051B0D43F4404343F0800320F8A3
:101E7C0022300A7830F8223003F040039BB25BB179
:101E8C0030F8223023F0F0031B051B0D43F4004304
:101E9C0043F0C00320F822300A7830F8223023F0C7
:101EAC00F0031B051B0D43F4404343F0800320F863
:101EBC0022300C7830F824309BB223F4E04323F02A
:101ECC00400348F28002134320F82430097830F89C
:101EDC0021309BB223F4804323F07003134320F88A
:101EEC00213000205DF8044B704700BF8B7A002B2B
:101EFC0046D14B7813B30A7830F8223003F0400304
:101F0C009BB25BB130F8223023F0F0031B051B0DA4
:101F1C0043F4004343F0C00320F822300A7830F831
:101F2C0022309BB223F4E04323F0400343F40043FC
:101F3C0043F0800320F82230002070470A7830F8F4
:101F4C00223003F480439BB25BB130F8223023F093
:101F5C00F0031B051B0D43F4404343F0800320F8B2
:101F6C0022300A7830F822309BB223F4804323F0DD
:101F7C00700343F4004343F0800320F82230DBE786
:101F8C0010B44B78002B4BD10A7830F8223003F484
:101F9C0080439BB25BB130F8223023F0F0031B0579
:101FAC001B0D43F4404343F0800320F822300A78A1
:101FBC0030F8223003F040039BB25BB130F8223092
:101FCC0023F0F0031B051B0D43F4004343F0C00347
:101FDC0020F822300A7830F8223023F0F0031B0569
:101FEC001B0D43F4004343F0C00320F822300C785F
:101FFC0030F824309BB223F4804323F0700348F272
:10200C008002134320F82430097830F821309BB239
:10201C0023F4E04323F04003134320F821304AE03B
:10202C000A7830F8223003F480439BB25BB130F86D
:10203C00223023F0F0031B051B0D43F4404343F007
:10204C00800320F822300A7830F8223003F0400365
:10205C009BB25BB130F8223023F0F0031B051B0D53
:10206C0043F4004343F0C00320F822300A7830F8E0
:10207C00223023F0F0031B051B0D43F4404343F0C7
:10208C00800320F822300C7830F824309BB223F4F3
:10209C00E04323F0400348F28002134320F824303D
:1020AC00097830F821309BB223F4804323F070037D
:1020BC00134320F8213000205DF8044B704700BF1B
:1020CC000A788AB930F822309BB223F4804323F08B
:1020DC00400383F4805383F0100343F4004343F034
:1020EC00800320F8223020E04B787BB130F822308E
:1020FC009BB223F4E04323F0400383F0100343F43A
:10210C00004343F0800320F822300EE030F82230F8
:10211C009BB223F4804323F0700383F4805343F485
:10212C00004343F0800320F822300020704700BFAA
:10213C004B781BB30A7830F8223003F040039BB283
:10214C005BB130F8223023F0F0031B051B0D43F478
:10215C00004343F0C00320F822300A7830F82230D4
:10216C009BB223F4E04323F0400383F0300343F4A9
:10217C00004343F0800320F8223022E00A7830F844
:10218C00223003F480439BB25BB130F8223023F051
:10219C00F0031B051B0D43F4404343F0800320F870
:1021AC0022300A7830F822309BB223F4804323F09B
:1021BC00700383F4405343F4004343F0800320F84E
:1021CC0022300020704700BF11B98023A0F84C309A
:1021DC00002070470020704700207047B0F8440082
:1021EC0080B270470020704710B401335B1000EBD5
:1021FC00420202F5806207E00C78487844EA002439
:10220C0022F8044B0231013B002BF5D15DF8044B55
:10221C00704700BF70B54A78012A40F0BF808E69C4
:10222C000B699E4203D9F61A8E611E4601E000230B
:10223C008B610D4604468B7A7BB94969AA88B3B287
:10224C00FFF7D2FFB4F850309BB22A7803EBC203ED
:10225C0004EB4303C3F804648FE0097830F82130B1
:10226C0003F040039BB293B322BBB0F850309BB247
:10227C0003EBC101063100EB41013E2E0ED9C6F332
:10228C004F1316F01F0F01D1013B9BB26FEAC363D2
:10229C006FEA53439BB2C1F8003416E0C6F34F0308
:1022AC0016F0010F01D001339BB29B029BB2C1F817
:1022BC0000340AE0012A08D1B0F850309BB203EB8D
:1022CC00C10300EB4303C3F804642A8931E022BB49
:1022DC00B0F850309BB203EBC101023100EB41016D
:1022EC003E2E0ED9C6F34F1316F01F0F01D1013B32
:1022FC009BB26FEAC3636FEA53439BB2C1F80034DD
:10230C0016E0C6F34F0316F0010F01D001339BB258
:10231C009B029BB2C1F800340AE0012A08D1B0F844
:10232C0050309BB203EBC10300EB4303C3F80464CE
:10233C00EA8820466969B3B2FFF756FF6B786BB930
:10234C002A7834F8223023F0F0031B051B0D43F4DC
:10235C00004343F0C00324F822300EE0012B0CD1D3
:10236C002A7834F8223023F0F0031B051B0D43F4BC
:10237C00404343F0800324F822302A7834F822308A
:10238C009BB223F4E04323F0400383F0300343F487
:10239C00004343F0800324F82230A8E08B690C69D9
:1023AC00A34203D91B1B8B61234601E000248C61E3
:1023BC008C7A2CBBB0F8502092B20C7802EBC40291
:1023CC00063200EB42023E2B0ED9C3F34F1413F02E
:1023DC001F0F01D1013CA4B26FEAC4646FEA5444EC
:1023EC00A4B2C2F8004472E0C3F34F0413F0010F1F
:1023FC0001D00134A4B2A402A4B2C2F8004466E035
:10240C002ABBB0F8502092B20C7802EBC402023214
:10241C0000EB42023E2B0ED9C3F34F1413F01F0FE7
:10242C0001D1013CA4B26FEAC4646FEA5444A4B273
:10243C00C2F8004417E0C3F34F0413F0010F01D0AE
:10244C000134A4B2A402A4B2C2F800440BE0012AE5
:10245C0009D1B0F8502092B20C7802EBC40200EB18
:10246C004202C2F804344A782ABBB0F8502092B227
:10247C000C7802EBC402063200EB42023E2B0ED962
:10248C00C3F34F1413F01F0F01D1013CA4B26FEA38
:10249C00C4646FEA5444A4B2C2F8004417E0C3F316
:1024AC004F0413F0010F01D00134A4B2A402A4B262
:1024BC00C2F800440BE0012A09D1B0F8502092B2C6
:1024CC000C7802EBC40200EB4202C2F804340A7826
:1024DC0030F822309BB223F4804323F0700383F452
:1024EC00405343F4004343F0800320F82230002093
:1024FC0070BD00BF01335B1000EB420202F580623D
:10250C0004E0106821F8020B013B0432002BF8D1D7
:10251C00704700BF002800F0A28070B5044690F808
:10252C003D3013F0FF0F04D1002380F83C30FEF750
:10253C002DFE242384F83D302268136823F0010318
:10254C00136000F00BFD6268474B9A4205D8474B6D
:10255C0098428CBF0023012304E0454B98428CBF6A
:10256C0000230123002B7CD1424BA3FB00239B0CAB
:10257C0022685360216865683B4A954201D8013353
:10258C0008E04FF4967202FB03F33B4AA2FB0323D1
:10259C009B0901330B6222686168334B99420AD85C
:1025AC0001384900B0FBF1F00130C0F30B000428F6
:1025BC0038BF042035E0A5685DB9431E01EB410628
:1025CC00B3FBF6F31B0513F5801F14BF0023012387
:1025DC000CE0431E01EB810606EB8606B3FBF6F31B
:1025EC001B0513F5801F14BF00230123C3B955B974
:1025FC00431E01EB4100B3FBF0F00130C0F30B00C4
:10260C0040F400400DE0431E01EB810000EB800024
:10261C00B3FBF0F00130C0F30B0040F4404000E09D
:10262C000120D0612268E169236A0B4313602268A0
:10263C002169E3680B43936022686169A3690B43CA
:10264C00D3602268136843F00103136000202064F8
:10265C00202384F83D30206384F83E0070BD0120B7
:10266C007047012070BD00BFA08601007F841E0052
:10267C00FF083D0083DE1B43D34D62102DE9F84368
:10268C00814601680B6923F44052C36813430B6104
:10269C00816803691943436919430068C26822F4CD
:1026AC00B05323F00C030B43C360D9F800104B69F3
:1026BC0023F44072D9F8183013434B61D9F8005009
:1026CC005B4B9D4259D100F059FC00EB800000EBB4
:1026DC008000D9F80440A400B0FBF4F4554EA6FBDE
:1026EC0004346409240100F049FC00EB800000EB89
:1026FC008000D9F804309B00B0FBF3F700F03EFCEF
:10270C0000EB800000EB8000D9F804309B00B0FB9C
:10271C00F3F3A6FB03235B094FF0640808FB137368
:10272C001B013233A6FB03235B0903F0F0031C44AB
:10273C0000F024FC00EB800000EB8000D9F80430A2
:10274C009B00B0FBF3F700F019FC00EB800000EBF2
:10275C008000D9F804309B00B0FBF3F3A6FB0323F5
:10276C005B0908FB13731B013233A6FB0323C3F372
:10277C0043131C44AC60BDE8F88300F0EFFB00EBA6
:10278C00800000EB8000D9F80440A400B0FBF4F406
:10279C00284EA6FB04346409240100F0DFFB00EB97
:1027AC00800000EB8000D9F804309B00B0FBF3F7FD
:1027BC0000F0D4FB00EB800000EB8000D9F8043073
:1027CC009B00B0FBF3F3A6FB03235B094FF06408FB
:1027DC0008FB13731B013233A6FB03235B0903F0C5
:1027EC00F0031C4400F0BAFB00EB800000EB80000F
:1027FC00D9F804309B00B0FBF3F700F0AFFB00EB13
:10280C00800000EB8000D9F804309B00B0FBF3F3A0
:10281C00A6FB03235B0908FB13731B013233A6FBD6
:10282C000323C3F343131C44AC60BDE8F88300BF1F
:10283C00003801401F85EB5168B310B5044690F881
:10284C00393013F0FF0F04D1002380F83830FEF735
:10285C00DBFC242384F839302268D36823F400533A
:10286C00D3602046FFF70AFF2268136923F49043D4
:10287C0013612268536923F02A0353612268D368D9
:10288C0043F40053D3600020E063202384F83930F4
:10289C0084F83A3010BD0120704700BF10B50446D3
:1028AC000E4B18784FF47A73B3FBF0F30C4A1068A4
:1028BC00B0FBF3F000F03EFD58B90F2C0BD84FF0E5
:1028CC00FF302146002200F0F7FC064B1C60002074
:1028DC0010BD012010BD012010BD00BF480000201C
:1028EC004C0000204400002008B5074A136843F050
:1028FC0010031360032000F0CDFC0020FFF7CEFF87
:10290C00FEF7F4FB002008BD00200240034A1368C8
:10291C00034909780B441360704700BF64230020FF
:10292C0048000020014B1868704700BF642300204A
:10293C0082B0084B1B68084AA2FB03235B0A00FB0E
:10294C0003F0019000BF019B5A1E0192002BF9D19C
:10295C0002B070474C000020D34D621070B582B0AD
:10296C000446036813F0010F6BD0A84B5B6803F0AF
:10297C000C03042B0AD0A54B5B6803F00C03082B4B
:10298C000DD1A24B5B6813F4803F08D09F4B1B68A2
:10299C0013F4003F55D06368002B52D1B8E1636843
:1029AC00B3F5803F05D1994A136843F48033136023
:1029BC0026E063B903F1804303F504331A6822F46B
:1029CC0080321A601A6822F480221A6018E0B3F57B
:1029DC00A02F0CD103F18043A3F53C331A6842F4C9
:1029EC0080221A601A6842F480321A6008E0874B21
:1029FC001A6822F480321A601A6822F480221A6053
:102A0C0063687BB1FFF78EFF054605E0FFF78AFF91
:102A1C00401B642800F27E817C4B1B6813F4003F42
:102A2C00F4D00EE0FFF77EFF054605E0FFF77AFFD6
:102A3C00401B642800F27081744B1B6813F4003F38
:102A4C00F4D1236813F0020F50D0704B5B6813F075
:102A5C000C0F0AD06D4B5B6803F00C03082B16D1DE
:102A6C006A4B5B6813F4803F11D1684B1B6813F001
:102A7C00020F03D02369012B40F05081634A136885
:102A8C0023F0F803616943EAC10313602EE0236964
:102A9C00D3B101225E4B1A60FFF744FF054605E0F7
:102AAC00FFF740FF401B022800F23A81574B1B688E
:102ABC0013F0020FF4D0554A136823F0F803616940
:102ACC0043EAC103136011E00022514B1A60FFF777
:102ADC0029FF054605E0FFF725FF401B022800F201
:102AEC0021814A4B1B6813F0020FF4D1236813F0B9
:102AFC00080F29D0A369ABB10122464B1A60FFF72E
:102B0C0011FF054605E0FFF70DFF401B022800F200
:102B1C000B813E4B5B6A13F0020FF4D00120FFF7E0
:102B2C0007FF11E000223B4B1A60FFF7FBFE054646
:102B3C0005E0FFF7F7FE401B022800F2F780334B4D
:102B4C005B6A13F0020FF4D1236813F0040F00F04A
:102B5C0089802E4BDB6913F0805F0BD12B4BDA692C
:102B6C0042F08052DA61DB6903F080530193019BE0
:102B7C00012500E00025284B1B6813F4807F13D13E
:102B8C00254A136843F480731360FFF7CBFE0646A7
:102B9C0005E0FFF7C7FE801B642800F2C9801E4BBE
:102BAC001B6813F4807FF4D0E368012B05D1174A1E
:102BBC00136A43F00103136222E063B903F180430B
:102BCC0003F504331A6A22F001021A621A6A22F01F
:102BDC0004021A6214E0052B09D10C4B1A6A42F05C
:102BEC0004021A621A6A42F001021A6208E0074BE8
:102BFC001A6A22F001021A621A6A22F004021A629C
:102C0C00E368CBB1FFF78EFE06460FE000100240E2
:102C1C00000042428004424200700040FFF782FEF6
:102C2C00801B41F28833984200F28480494B1B6A26
:102C3C0013F0020FF2D00FE0FFF774FE064606E029
:102C4C00FFF770FE801B41F28833984274D8414BD9
:102C5C001B6A13F0020FF3D125B13E4AD36923F05E
:102C6C008053D361E369002B68D03A4A526802F072
:102C7C000C02082A64D0022B37D10022364B1A6082
:102C8C00FFF750FE054604E0FFF74CFE401B022800
:102C9C0058D8304B1B6813F0007FF5D1236AB3F57D
:102CAC00803F06D12B494B6823F40032A3681343B1
:102CBC004B602848436823F47411236A626A1343F7
:102CCC000B4343600122244B1A60FFF72BFE044692
:102CDC0004E0FFF727FE001B022835D81D4B1B68AC
:102CEC0013F0007FF5D0002031E000221A4B1A605F
:102CFC00FFF718FE044604E0FFF714FE001B022841
:102D0C0024D8144B1B6813F0007FF5D100201EE073
:102D1C0001201CE003201AE0032018E0012016E03B
:102D2C00032014E0032012E0032010E003200EE047
:102D3C0003200CE003200AE0032008E0002006E05A
:102D4C00012004E0032002E0032000E0032002B095
:102D5C0070BD00BF001002406000424230B486B02B
:102D6C00164D02AC28686968AA68EB680FC42B8AF8
:102D7C00ADF80430124B5B6803F00C02082A19D131
:102D8C00C3F3834206A90A4412F8100C13F4803FD3
:102D9C000CD00B4B5B68C3F340430B4413F8142C5F
:102DAC00084B03FB00F0B0FBF2F004E0064B03FB16
:102DBC0000F000E0034806B030BC7047204F00081C
:102DCC000010024000127A0000093D0070B55C4B07
:102DDC001B6803F007038B420BD2594A136823F08C
:102DEC0007030B431360136803F007038B4240F097
:102DFC009780036813F0020F06D0524C636823F0DF
:102E0C00F0028368134363600D460446036813F0B5
:102E1C00010F4DD04268012A05D14A4B1B6813F4AF
:102E2C00003F0DD17EE0022A05D1464B1B6813F002
:102E3C00007F05D178E0434B1B6813F0020F75D06F
:102E4C0040494B6823F0030313434B60FFF76AFDC3
:102E5C0006466368012B0ED106E0FFF763FD801B6D
:102E6C0041F28833984263D8364B5B6803F00C030D
:102E7C00042BF2D11CE0022B15D106E0FFF752FD1A
:102E8C00801B41F28833984254D82E4B5B6803F078
:102E9C000C03082BF2D10BE0FFF744FD801B41F231
:102EAC008833984248D8274B5B6813F00C0FF3D14A
:102EBC00234B1B6803F00703AB420AD9204A136863
:102ECC0023F007032B431360136803F00703AB4293
:102EDC0034D1236813F0040F06D01A494B6823F43D
:102EEC00E062E36813434B60236813F0080F07D0CC
:102EFC00144A536823F46053216943EAC1035360B5
:102F0C00FFF72CFF0F4B5B68C3F303130E4AD35C24
:102F1C00D8400E4B18600020FFF7C0FC002070BD9D
:102F2C00012070BD012070BD012070BD012070BD5D
:102F3C00032070BD032070BD032070BD012070BD47
:102F4C000020024000100240A85000084C00002055
:102F5C00014B1868704700BF4C00002008B5FFF704
:102F6C00F7FF044B5B68C3F30223034AD35CD840DE
:102F7C0008BD00BF00100240B850000808B5FFF7AC
:102F8C00E7FF044B5B68C3F3C223034AD35CD8400E
:102F9C0008BD00BF00100240B850000870B582B0E8
:102FAC000446036813F0010F5CD03E4BDB6913F051
:102FBC00805F0BD13B4BDA6942F08052DA61DB69FE
:102FCC0003F080530193019B012600E00026364B51
:102FDC001B6813F4807F12D1334A136843F4807357
:102FEC001360FFF79FFC054604E0FFF79BFC401BBA
:102FFC0064284FD82C4B1B6813F4807FF5D0294BD9
:10300C001B6A13F4407321D0626802F440729A4236
:10301C001CD0244A136A23F44070244901250D6006
:10302C0000250D60106213F0010F0FD0FFF77AFC32
:10303C00054606E0FFF776FC401B41F288339842C8
:10304C002AD8184B1B6A13F0020FF3D015490B6AE0
:10305C0023F44072636813430B621EB1CB6923F0F7
:10306C008053CB61236813F0020F06D00D494B68D7
:10307C0023F44042A36813434B60236813F0100FF2
:10308C000CD008494B6823F48002E36813434B606F
:10309C00002004E0032002E0032000E0002002B046
:1030AC0070BD00BF0010024000700040400442425E
:1030BC00F0B583B000273C46DAE00122A2400B6851
:1030CC001340934240F0D3804D68122D2DD00BD875
:1030DC00022D27D003D85DB3012D1ED035E0032D72
:1030EC0030D0112D1BD030E0644EB54220D008D822
:1030FC00A6F58016B5421BD006F58036B54224D114
:10310C0016E05F4EB54213D006F58036B5420FD0AF
:10311C00A6F58016B54218D10AE0CF6815E0CF6845
:10312C00043712E0CF6808370FE0CF680C370CE09B
:10313C008D684DB1012D02D10261082705E0426175
:10314C00082702E0002700E00427FF2B01D8844663
:10315C0001E000F1040CFF2B02D84FEA840E03E0CF
:10316C00A4F1080E4FEA8E0EDCF800600F2202FA72
:10317C000EF226EA020507FA0EF22A43CCF80020DA
:10318C004A6812F0805F72D03E4A956945F001059D
:10319C009561926902F001020192019A4FEA940E34
:1031AC000EF10205384A52F8256004F0030C4FEA80
:1031BC008C0C0F2202FA0CF226EA0205334A9042DA
:1031CC0013D002F5806290420DD002F580629042DD
:1031DC0007D002F58062904201D1032206E004225E
:1031EC0004E0022202E0012200E0002202FA0CF2CA
:1031FC002A430EF1020E244D45F82E204A6812F493
:10320C00803F05D005F580652A681A432A6004E0E2
:10321C001F4D2A6822EA03022A604A6812F4003F12
:10322C0004D01B4D6A681A436A6004E0184D6A6842
:10323C0022EA03026A604A6812F4801F04D0144D1B
:10324C00AA681A43AA6004E0114DAA6822EA030294
:10325C00AA604A6812F4001F04D00D4DEA681343AB
:10326C00EB6004E00A4DEA6822EA0303EB600134E8
:10327C000F2C7FF622AF03B0F0BD00BF0000211071
:10328C000000311000100240000001400008014015
:10329C000004014000F00700064AD36823F4E06301
:1032AC001B041B0C43EA002040F0BF6040F40030CC
:1032BC00D060704700ED00E030B4164BDC68C4F30E
:1032CC000224C4F10705042D28BF0425231D062B59
:1032DC0001D9033C00E00024012303FA05F5013D6C
:1032EC002940A140A340013B1A400A43002806DABA
:1032FC0000F00F001201D2B2074B1A5407E0120172
:10330C00D2B200F1604000F5614080F8002330BC7F
:10331C00704700BF00ED00E014ED00E0410900F043
:10332C001F0001238340024A42F82130704700BF3E
:10333C0000E100E00138B0F1807F0AD2064B586002
:10334C00F021064A82F823100020986007221A60A8
:10335C0070470120704700BF10E000E000ED00E076
:10336C00042805D1054A136843F004031360704721
:10337C00024A136823F004031360704710E000E066
:10338C00704700BF08B5FFF7FBFF08BD0F4B1A686D
:10339C0042F001021A6059680D4A0A405A601A68D4
:1033AC0022F0847222F480321A601A6822F480228D
:1033BC001A605A6822F4FE025A604FF41F029A6097
:1033CC004FF00062034B9A60704700BF0010024040
:1033DC000000FFF800ED00E098B108B50346D0F806
:1033EC00140210B10020C3F8140209B1C3F8101272
:1033FC00012183F8FC111A701846FDF7A9FC002076
:10340C0008BD0220704700BF19B1C0F8141200208B
:10341C0070470220704700BF08B5FDF7E1FC0020A3
:10342C0008BD00BF08B5D0F8143223B11B6898470B
:10343C0018B1022008BD022008BD002008BD00BF45
:10344C0008B5D0F814325B689847002008BD00BF5F
:10345C0038B5044600F50275284600F003F901233F
:10346C00C4F8F431B4F80E32C4F8F83194F80812F8
:10347C0001F01F03012B08D013B1022B0AD00EE070
:10348C002046294600F078FA0EE02046294600F046
:10349C0097FA09E02046294600F0AEFA04E02046EF
:1034AC0001F08001FDF7CEFC002038BD38B5044694
:1034BC0009BBD0F8F431032B26D1D0F80C31D0F85D
:1034CC0010118B420AD95B1AC0F80C318B4228BF01
:1034DC000B4611469AB200F063FB15E0D0F814329B
:1034EC001B6923B190F8FC21032A00D19847204690
:1034FC0000F060FB08E0D0F814329B6923B190F81F
:10350C00FC21032A00D19847002038BD38B5044669
:10351C00002942D1D0F8F431022B36D1C169036AAB
:10352C0099420CD9CB1AC36111469AB200F01EFB1A
:10353C00204600210A460B46FDF7D8FC25E08169A0
:10354C00B1FBF3F203FB121292B98B4210D8D0F8F4
:10355C00F83199420CD200210A4600F007FB0023F7
:10356C00C4F8F831204619461A46FDF7BFFC0CE0AA
:10357C00D4F81432DB682BB194F8FC21032A01D166
:10358C0020469847204600F021FB94F80032012B8E
:10359C000CD1002384F8003208E0D0F814325B69B7
:1035AC0023B190F8FC21032A00D19847002038BDA4
:1035BC0038B5044600210A464023FDF721FC40257E
:1035CC00C4F810512046802100222B46FDF718FC30
:1035DC002562012384F8FC31D4F818322BB1D4F8CD
:1035EC0014325B68204621799847002038BD00BF13
:1035FC0001740020704700BF90F8FC3180F8FD3159
:10360C00042380F8FC310020704700BF90F8FD3196
:10361C0080F8FC310020704708B590F8FC31032B82
:10362C0004D1D0F81432DB6903B19847002008BDEF
:10363C000346002002E00130C0B201331A78002AA0
:10364C00F9D170474B88012B0BD110B50446C0F84B
:10365C000432D0F814329B689847204600F0AAFA3E
:10366C0010BD70470B7803704B7843708B78CA7819
:10367C0003EB022343800B794A7903EB022383800B
:10368C008B79CA7903EB0223C380704710B50446CB
:10369C008021FDF7D7FB20460021FDF7D3FB10BDA1
:1036AC0030B583B004460D464A88130A013B062BFD
:1036BC0000F28580DFE803F0040D2383836573003B
:1036CC00D0F810321B68007C0DF1060198470146BA
:1036DC0079E0037C4BB9D0F814329B6A0DF10600EB
:1036EC0098470146022343706DE0D0F81432DB6A30
:1036FC000DF10600984701460223437063E0D2B2F5
:10370C00052A3AD8DFE802F0030C151E2730D0F852
:10371C0010325B68007C0DF106019847014652E0BF
:10372C00D0F810329B68007C0DF1060198470146D9
:10373C0049E0D0F81032DB68007C0DF106019847A7
:10374C00014640E0D0F810321B69007C0DF10601F7
:10375C009847014637E0D0F810325B69007C0DF1D8
:10376C000601984701462EE0D0F810329B69007C88
:10377C000DF106019847014625E02946FFF786FF23
:10378C002EE0037C3BB9D0F814325B6B0DF10600D4
:10379C009847014617E02946FFF778FF20E0037CA5
:1037AC004BB9D0F814321B6B0DF10600984701464B
:1037BC000723437007E02946FFF768FF10E029460E
:1037CC00FFF764FF0CE0BDF806304BB1EA883AB164
:1037DC009A4228BF1A46ADF80620204600F0B8F9E8
:1037EC0003B030BD38B504468B88E3B9CB88D3B968
:1037FC008D7805F07F0590F8FC31032B02D1FFF793
:10380C0045FF38BD80F8FE512946FDF74FFB204699
:10381C0000F0D0F91DB1022384F8FC3138BD01232E
:10382C0084F8FC3138BD2046FFF730FF38BD00BFAF
:10383C0038B504460D468978264B1970012903D9F1
:10384C002946FFF723FF38BD90F8FC31022B02D03C
:10385C00032B15D039E081B14160032380F8FC3192
:10386C00FFF7E0FD022804D120462946FFF70EFFA2
:10387C0038BD204600F09EF938BD00F09BF938BDEC
:10388C0049B9022380F8FC314160FFF7D9FD20468D
:10389C0000F090F938BD4368994213D0D9B2FFF7C4
:1038AC00CFFD0C4B197861602046FFF7BBFD022859
:1038BC0004D120462946FFF7E9FE38BD204600F02A
:1038CC0079F938BD00F076F938BD2946FFF7DEFEF0
:1038DC0038BD00BF0C04002008B50346CA88012A75
:1038EC0002D0FFF7D3FE08BD90F8FC21022A02D0CB
:1038FC00032A08D00CE00146002241F8082F0122CF
:10390C0000F026F908BD191D012200F021F908BDAF
:10391C00FFF7BCFE08BD00BF08B5034690F8FC21BC
:10392C00023A012A0DD80122C260D0F804220AB151
:10393C000322C260184603F10C01022200F008F9C0
:10394C0008BDFFF7A3FE08BD10B5044690F8FC3186
:10395C00023B012B0DD84B88012B0CD10023C0F856
:10396C000432D0F814329B689847204600F022F9B4
:10397C0010BDFFF78BFE10BD08B54B78092B1BD87B
:10398C00DFE803F011171A141A08051A0E0BFFF7CB
:10399C0087FE13E0FFF726FF10E0FFF749FF0DE06D
:1039AC00FFF79AFF0AE0FFF7B7FF07E0FFF74AFEC1
:1039BC0004E0FFF7C9FF01E0FFF768FE002008BD37
:1039CC0038B504460D4690F8FC31032B0FD10B791A
:1039DC00012B09D8D0F814329B689847EB8843B96F
:1039EC00204600F0E7F804E0FFF750FE01E0FFF797
:1039FC004DFE002038BD00BF38B505460C468A8800
:103A0C00D1B2237803F06003202B05D1D0F8143207
:103A1C009B68214698477BE06378012B26D0002BCE
:103A2C0048D0032B74D190F8FC31022B02D0032B1D
:103A3C0007D017E000296BD0802969D0FDF702FA76
:103A4C0066E0638823B919B1802901D0FDF7FAF932
:103A5C00D5F814329B68284621469847284600F032
:103A6C00A9F855E02146FFF711FE51E090F8FC3122
:103A7C00022B02D0032B07D018E0002948D0802954
:103A8C0046D0FDF7DFF943E06388002B40D111F0FD
:103A9C007F0F07D0FDF7E6F9D5F814329B6828465E
:103AAC0021469847284600F085F831E02146FFF77B
:103ABC00EDFD2DE090F8FC31022B02D0032B06D04B
:103ACC0023E011F07F0F23D0FDF7BCF920E012F0BA
:103ADC00800F05D001F07F0400EB0414143405E0D2
:103AEC0001F07F0400EB041404F582742846FDF702
:103AFC00C9F910B10123236001E00023236028469B
:103B0C002146022200F024F802E02146FFF7BEFD18
:103B1C00002038BDD0B170B50D4616460446FFF7EF
:103B2C0087FD0130400080B23080287003236B7019
:103B3C00022307E05A1CD2B20134E954531CDBB205
:103B4C000021A95421780029F4D170BD704700BF21
:103B5C0038B50D4613460222C0F8F4218361C361C7
:103B6C0000212A46FDF7B2F9002038BD10B50C46ED
:103B7C00134600212246FDF7A9F9002010BD00BF15
:103B8C0038B50D4613460322C0F8F421C0F80831AD
:103B9C00C0F80C3100212A46FDF7A8F9002038BDE9
:103BAC0010B50C46134600212246FDF79FF9002064
:103BBC0010BD00BF08B50423C0F8F43100210A463B
:103BCC000B46FDF783F9002008BD00BF08B505239F
:103BDC00C0F8F43100210A460B46FDF787F90020A6
:103BEC0008BD00BFD0F818321BB10020C3F8140276
:103BFC0070470220704700BF10B5D0F81842D0F8BB
:103C0C001C325BB194F80002FF2807D09B68214658
:103C1C0094F801229847FF2384F80032002010BD4D
:103C2C004323038000487047500000204323038047
:103C3C00004870471C010020432303800048704754
:103C4C00D80000200A23038000487047CC000020D5
:103C5C0038B50446D0F81852FDF758F9C5F80C02DF
:103C6C00D4F818324BB1D4F81C32DB68D5F8040206
:103C7C0005F503719847002038BD022038BD00BF00
:103C8C0070B505460C46D0F818620B7813F060023C
:103C9C0024D0202A29D1CA88CAB113F0800F0BD0A6
:103CAC00D0F81C329B6848783146984728463146F4
:103CBC00E288FFF74DFF18E04B7886F80032CB888E
:103CCC0086F801323146E288FFF75AFF0DE0D0F852
:103CDC001C329B6848780022984706E04B780A2BE8
:103CEC0003D103490122FFF733FF002070BD00BF51
:103CFC000D04002010B504468121FDF793F82046F1
:103D0C000121FDF78FF820468221FDF78BF8D4F8BE
:103D1C00183253B1D4F81C325B689847D4F81802A7
:103D2C00FDF7FEF80023C4F81832002010BD00BFC8
:103D3C0038B50446037C6BB9812102224FF4007321
:103D4C00FDF75EF82046012102224FF40073FDF7C7
:103D5C0057F80AE0812102224023FDF751F8204652
:103D6C00012102224023FDF74BF820468221032239
:103D7C000823FDF745F84FF40770FDF7CDF805461D
:103D8C00C4F81802E8B1D4F81C321B689847002319
:103D9C00C5F81432C5F81832237C4BB920460121E2
:103DAC00D5F804224FF40073FDF7A0F8002038BDBD
:103DBC0020460121D5F804224023FDF797F8002076
:103DCC0038BD012038BD00BF19B1C0F81C1200204D
:103DDC0070470220704700BFD0F81832C3F80812A1
:103DEC00C3F8102200207047D0F81832C3F8041220
:103DFC000020704708B5D0F8183273B1D3F81422EC
:103E0C006AB90122C3F814228121D3F80822B3F82D
:103E1C001032FDF75BF8002008BD022008BD012020
:103E2C0008BD00BF08B5D0F8183293B1027C42B976
:103E3C000121D3F804224FF40073FDF757F800204A
:103E4C0008BD0121D3F804224023FDF74FF80020D0
:103E5C0008BD022008BD00BF002103E00B4B5B58DE
:103E6C00435004310A480B4B42189A42F6D30A4A83
:103E7C0002E0002342F8043B084B9A42F9D3FFF7C7
:103E8C0085FA00F015F8FCF767FA704764510008E2
:103E9C0000000020C4010020C40100206C2300207D
:103EAC00FEE70000014B1868704700BFC0010020FE
:103EBC000E4B70B51E460E4C0025E41AA410A542FC
:103ECC0004D056F8253098470135F8E701F016F87C
:103EDC00084B094C1E46E41AA4100025A54204D038
:103EEC0056F8253098470135F8E770BD5C5100084D
:103EFC005C5100085C5100086051000810B5431E6D
:103F0C000A44914204D011F8014B03F8014FF8E731
:103F1C0010BD03460244934202D003F8011BFAE79A
:103F2C00704700000FB40A4B13B51C6824B1A36989
:103F3C0013B9204600F0E0F905AB2046A168049ABD
:103F4C00019300F02BFB02B0BDE8104004B07047A9
:103F5C00C001002038B5084B05461C6824B1A36984
:103F6C0013B9204600F0C8F920462946A268BDE8DE
:103F7C00384000F0B1BD00BFC00100202DE9F04178
:103F8C001D463D4B04461E680F46904626B1B3694C
:103F9C0013B9304600F0B0F9384B9C4201D174682B
:103FAC0008E0374B9C4201D1B46803E0354B9C428E
:103FBC0008BFF468B8F1020F5AD8002D58DB304610
:103FCC00214600F02FF900236360A361A3891B062F
:103FDC0003D53046216900F01FFAA389B8F1020F0E
:103FEC0023F08303A38112D037BB002D08BF4FF4FD
:103FFC008065284600F008FA0746C8B94FF480607F
:10400C0000F002FA074688B94FF0FF3000E00020BC
:10401C00A38943F00203A3810023A36004F14703A7
:10402C002360236101236361BDE8F0814FF4806557
:10403C00A38943F08003A381B8F1010F01BFA389C9
:10404C0043F00103A3816B4208BFA3610E4BB36223
:10405C00A389276003F0080080B22761656148B12D
:10406C0013F0030F18BF0025A5600020BDE8F081F8
:10407C004FF0FF30BDE8F081C0010020C8500008AF
:10408C00E85000080851000885420008C9B20346F0
:10409C0010F8012B1AB18A42F9D118467047002941
:1040AC000CBF184600207047034611F8012B03F88B
:1040BC00012B002AF9D17047034613F8012B002A73
:1040CC00FBD1181A0138704770B5A2B1451E0139E1
:1040DC006B7811F8014F6E1CA34206D16FF00104EE
:1040EC00641B1444E04202D11C46181B70BD3546BB
:1040FC00002BEDD1F8E7104670BD034610B532B178
:10410C0011F8014B013A03F8014B002CF7D11A447A
:10411C00934203D0002103F8011BF9E710BD8A89F3
:10412C002DE9F041054610070C4657D44B68002B7F
:10413C0002DC0B6C002B18DDE66AB6B102F480527F
:10414C00002392B22F682B600AB1626D10E0216AD5
:10415C0028460123B047411C024609D12B683BB1CC
:10416C001D2B01D0162B46D12F600020BDE8F0810D
:10417C00A3895B0705D56368D21A636B0BB1236CFB
:10418C00D21AE66A00232846216AB047461CA38946
:10419C0005D12A681AB11D2A01D0162A19D100227C
:1041AC0062602269D904226004D5421C01D12B68BB
:1041BC0003B96065616B2F600029D6D004F144030C
:1041CC00994202D0284600F027F900206063BDE830
:1041DC00F08143F04003A381BDE8F0810F69002F0B
:1041EC00C3D093070E680CBF4B690023C7EB0608BE
:1041FC000F608B6012E0A3894FF0FF3043F0400357
:10420C00A381BDE8F0812846216A3A464346A66A56
:10421C00B0470028EFDD0744C0EB0808B8F1000FE9
:10422C00F1DCA2E738B50B6905460C46DBB118B1D9
:10423C0083690BB900F060F80C4B9C4201D16C689F
:10424C0008E00B4B9C4201D1AC6803E0094B9C424B
:10425C0008BFEC68B4F90C302BB128462146BDE8F8
:10426C003840FFF75CBF002038BD00BFC8500008C5
:10427C00E850000808510008014900F0A7B800BF39
:10428C003142000810B5044600230360436083608C
:10429C0081814366C28103614361836119465C304D
:1042AC000822FFF736FE054B24626362044BA362BF
:1042BC00044BE362044B236310BD00BF7D4B00082D
:1042CC009F4B0008D74B0008FB4B000870B56823C8
:1042DC004D1E5D430E4605F1740100F0E1F80446F5
:1042EC0040B1002180E842000C30A06005F168026A
:1042FC00FFF70FFE204670BD836910B5044633BB33
:10430C008364C3640365124B124A1B688262984231
:10431C0004BF0123836100F01FF86060204600F0A9
:10432C001BF8A060204600F017F80421E060002282
:10433C006068FFF7A7FFA06809210122FFF7A2FF21
:10434C00E06812210222FFF79DFF0123A36110BD3B
:10435C00C450000885420008F8B51B4B07461E6880
:10436C00B36913B93046FFF7C7FF4836B4687368B2
:10437C00013B04D4B4F90C5075B16834F8E73368D8
:10438C002BB938460421FFF7A1FF306008B136681D
:10439C00ECE70C233B60F8BD4FF6FF73E381012380
:1043AC00A38165662560A560656025616561A56171
:1043BC0004F15C0029460822FFF7ABFD6563A56399
:1043CC00A564E5642046F8BDC45000082DE9F84307
:1043DC008046894600F14804002694B1A5686768B8
:1043EC00013F0CD4AB89012B07D9B5F90E30013341
:1043FC0003D040462946C84706436835F0E7246891
:10440C00EBE73046BDE8F883024B0146186800F034
:10441C0047B800BFC001002030B500293CD051F88E
:10442C00042C0B1F1D49002AB8BF9B180A680C46A8
:10443C0012B95A600B6030BD93420DD219685818EE
:10444C00904201BF5A5852181A60426823605A6051
:10445C0030BD994203D80A4651680029F9D1146835
:10446C0015199D420AD11B682344D0188842136049
:10447C0012D10868034413604B680CE002D90C237A
:10448C00036030BD1C681819884201BF0868496870
:10449C00001918605960536030BD00BF140400202F
:1044AC0070B5CC1C24F0030408340C2C38BF0C243D
:1044BC00002C064603DA0C233360002070BD8C42BE
:1044CC00F9D3204A136810461946A1B10A68121B89
:1044DC000ED40B2A03D90A608B188C501FE08B4228
:1044EC000BBF5A684A6802605A6018BF0B4616E048
:1044FC000B464968E9E7144D2B681BB9304600F0B0
:10450C0027FB28603046214600F022FB421C034664
:10451C00D1D0C51C25F0030585420AD11C6003F1DE
:10452C000B001A1D20F00700821A0AD05142995034
:10453C0070BD3046E91A00F00BFB0130BBD02B46A6
:10454C00ECE770BD1404002010040020936810B533
:10455C00013B002B936009DA9469A34202DBCBB2D6
:10456C000A2B03D1BDE8104000F046BB1368581C61
:10457C0010601970C8B210BDF8B506460F46144647
:10458C00D518AC4208D0304614F8011B3A46FFF758
:10459C00DDFF431CF5D100E00020F8BD2DE9F04310
:1045AC009DB00D4690460393064618B183690BB92E
:1045BC00FFF7A2FE754B9D4201D1756808E0744B64
:1045CC009D4201D1B56803E0724B9D4208BFF5686E
:1045DC00AB891C070AD52B6943B10023099320230F
:1045EC008DF8293030238DF82A3041E030462946A9
:1045FC0000F068FB0028F0D04FF0FF30C2E0039AC7
:10460C000134111D12680391002ABBBF524243F0C2
:10461C00020307920792B8BF049323782E2B7BD00A
:10462C00DFF8808121784046032200F025FC38B168
:10463C00049AC8EB000040238340134304930134D5
:10464C0021785548062204F101088DF8281000F055
:10465C0013FC002800F08580504B002B78D1039B75
:10466C00073323F0070308330393099B3B44099357
:10467C0043461C4613F8012B1AB9B4EB08090ED0AB
:10468C0002E0252AF5D1F8E73046294642464B464A
:10469C00FFF772FF013070D0099B4B4409932378CC
:1046AC00002B6AD000234FF0FF320493079305923E
:1046BC0006938DF853301A9304F101084446DFF841
:1046CC00E89021784846052200F0D6FB08F1010855
:1046DC00049B30B1C9EB00000122824013430493C8
:1046EC00ECE7D80644BF20228DF85320190744BFAD
:1046FC002B228DF8532022782A2A80D02346079922
:10470C001C4622780133303A092A03D80A2000FBD0
:10471C000121F5E7079180E763782A2B0AD1039BE7
:10472C0002341A1D1B680392002BB8BF4FF0FF33E5
:10473C00059375E7611C00220C4623780131303B50
:10474C00092B03D80A2000FB0232F5E7059267E734
:10475C0003AB0093304604A92A46114BAFF30080FB
:10476C0007E003AB0093304604A92A460C4B00F03B
:10477C0093F8421C07467FF478AFAB895B063FF594
:10478C003BAF09981DB0BDE8F08300BFC8500008CE
:10479C00E8500008085100083251000800000000E1
:1047AC00854500082E510008285100082DE9F843D2
:1047BC0091461F468A680B6906469342B8BF13465A
:1047CC00C9F8003091F843200C46DDF8208012B176
:1047DC000133C9F800302368990642BFD9F800307C
:1047EC000233C9F80030256815F006051CD094F882
:1047FC0043302268003318BF012392061FD5E118FD
:10480C00302081F843005A1C94F84510224402339E
:10481C0082F8431013E03046394604F119020123A3
:10482C00C047013007D00135E368D9F800209B1A46
:10483C009D42F0DBDBE74FF0FF30BDE8F8833046FC
:10484C00394604F14302C0470130F4D02268D9F84C
:10485C000050E36802F00602042A08BF5D1B2269BF
:10486C00A3680CBF25EAE57500259342C4BF9B1ACB
:10487C00ED184FF00009A9450ADA3046394604F123
:10488C001A020123C0470130D5D009F10109F2E722
:10489C000020BDE8F88300002DE9FF410C461746C7
:1048AC00227E98466E2A06460A9B01F1430100F0CF
:1048BC00B08012D8632A23D00AD8002A00F0BD8019
:1048CC00582A40F0CC8084F84520DFF804E257E009
:1048DC00642A1ED0692A1CD0C1E0732A00F0B18072
:1048EC0009D86F2A2ED0702A40F0B980226842F085
:1048FC00200222603FE0752A24D0782A3BD0AEE01B
:10490C001A6804F14205111D1960136884F84230CD
:10491C00A9E020681A6810F0800F02D0101D1860F2
:10492C0008E010F0400F02F10400186002D0B2F958
:10493C00003000E01368002B3EDA2D225B4284F835
:10494C00432039E020681A6810F0800F02D0101D47
:10495C00186007E010F0400F02F10400186001D05D
:10496C00138800E01368227EDFF864E16F2A0CBF25
:10497C0008220A221CE07822DFF858E184F845204E
:10498C002268186812F0800F00F104051D6003D135
:10499C00550601D5038800E00368D00744BF42F0F8
:1049AC00200222601BB9226822F020022260102211
:1049BC00002084F8430002E0DFF814E10A22656865
:1049CC00002DA8BF2068A560A4BF20F004002060C3
:1049DC0003B965B10D46B3FBF2F002FB10331EF8C0
:1049EC00033005F8013D03460028F4D100E00D46E4
:1049FC00082A0BD12368DA0708D5236962689A4222
:104A0C00DEBF302305F8013C05F1FF35491B216160
:104A1C002EE025681A6815F0800F606903D0151D0B
:104A2C001D60136808E015F0400F02F104051D60CD
:104A3C00136801D0188000E01860002323610D4634
:104A4C0016E01A68111D1960156800212846626865
:104A5C0000F012FA08B1401B6060636804E004F1D6
:104A6C00420584F8422001232361002384F843305B
:104A7C00CDF800803046214603AA3B46FFF796FE50
:104A8C00013002D14FF0FF301FE0304639462A4644
:104A9C002369C0470130F5D023689B0705D4E06833
:104AAC00039B9842B8BF18460FE00025E368039AB1
:104ABC009B1A9D42F3DA3046394604F11902012360
:104ACC00C0470130DED00135F0E704B0BDE8F0811D
:104ADC00395100084A51000870B50E461446054677
:104AEC0018B183690BB9FFF707FC164B9C4201D137
:104AFC006C6808E0144B9C4201D1AC6803E0134B8A
:104B0C009C4208BFEC68A368013B002BA36011DA40
:104B1C00A269934207DB23681E70236819780A295F
:104B2C000BD1284601E0284631462246BDE87040AC
:104B3C0000F062B823681E7023685A1C2260187833
:104B4C0070BD00BFC8500008E850000808510008AC
:104B5C0038B5064C0023054608462360FCF74CF894
:104B6C00431C02D1236803B12B6038BD682300209D
:104B7C0010B50C46B1F90E1000F08CF90028ABBF43
:104B8C00636DA3891B1823F48053ACBF6365A381A9
:104B9C0010BD2DE9F0411D468B890746DB050C46FF
:104BAC00164605D5B1F90E100022022300F006F9C5
:104BBC00A389384623F48053A381B4F90E103246EE
:104BCC002B46BDE8F04100F06BB810B50C46B1F9BE
:104BDC000E1000F0F3F8431CA38915BF606523F495
:104BEC00805343F48053A38118BFA38110BDB1F946
:104BFC000E1000F0D3B8000070B50D4614460646F2
:104C0C0018B183690BB9FFF777FB224B9C4201D19A
:104C1C00746808E0204B9C4201D1B46803E01F4B40
:104C2C009C4208BFF468A369A360A3891A0709D53D
:104C3C0023693BB123682069EDB2181A6369984265
:104C4C000FDB08E03046214600F03CF80028F1D09C
:104C5C004FF0FF3070BD30462146FFF7E3FA0028D5
:104C6C00F6D1A3680130013BA36023685A1C226073
:104C7C001D706369984204D0A389DB0707D50A2D00
:104C8C0005D130462146FFF7CDFA0028E0D1284661
:104C9C0070BD00BFC8500008E8500008085100085B
:104CAC0038B5074C054600202060084611461A46C8
:104CBC00FBF798FF431C02D1236803B12B6038BD6E
:104CCC0068230020314B70B51D6806460C4625B193
:104CDC00AB6913B92846FFF70FFB2D4B9C4201D152
:104CEC006C6808E02B4B9C4201D1AC6803E02A4B6A
:104CFC009C4208BFEC68A3899AB211071DD4D50653
:104D0C0002D40922326038E0500712D5616B41B1F0
:104D1C0004F14403994202D03046FFF77DFB002397
:104D2C006363A38923F02403A381002363602369B5
:104D3C002360A38943F00803A38123694BB9A3899A
:104D4C0003F42073B3F5007F03D03046214600F006
:104D5C0047F8A38913F0010205D00022A260626912
:104D6C005242A26103E0990758BF6269A2602269AE
:104D7C004AB903F0800080B230B143F04003A38104
:104D8C004FF0FF3070BD002070BD00BFC00100208F
:104D9C00C8500008E85000080851000838B5064C07
:104DAC000023054608462360FBF742FF431C02D153
:104DBC00236803B12B6038BD6823002038B5074C3D
:104DCC00054600202060084611461A46FBF73CFFBA
:104DDC00431C02D1236803B12B6038BD682300202B
:104DEC00F0B58B8991B09D0706460C4625D4B1F9D8
:104DFC000E10002908DAA389002513F0800F14BFC8
:104E0C0040274FF480670DE001AA00F055F8002808
:104E1C00F1DB029D4FF4806705F47045A5F5005158
:104E2C004D424D4130463946FFF73AFB60B9A389F4
:104E3C009A051DD443F00203A38104F147032360B8
:104E4C0023610123636113E00A4BB362A3892060E1
:104E5C0043F08003A381206167614DB13046B4F902
:104E6C000E1000F03BF818B1A38943F00103A381A5
:104E7C0011B0F0BD8542000810B5C9B20244904291
:104E8C00034605D01C7801308C42F8D1184610BD71
:104E9C00002010BD38B5074C0546002020600846A0
:104EAC0011461A46FBF796FE431C02D1236803B148
:104EBC002B6038BD6823002038B5074C002305460D
:104ECC00084611462360FBF7B7FE431C02D123684A
:104EDC0003B12B6038BD00BF6823002038B5064CE9
:104EEC000023054608462360FBF7ACFE431C02D1A9
:104EFC00236803B12B6038BD68230020F8B500BFD0
:104F0C00F8BC08BC9E467047F8B500BFF8BC08BC9E
:044F1C009E467047F6
:104F200002030405060708090A0B0C0D0E0F1010EA
:104F3000010200005372632F6D61696E2E630000E1
:104F4000257300000D0A20202020202020200000B2
:104F50000D0A20496E737472756374696F6E2073E5
:104F600074616E64617264206572726F722C20705D
:104F70006C6561736520636F6E7461637420736F19
:104F80006674776172652070726F63657373696EA2
:104F9000672100002D616C6C000000000D0A2D2DB2
:104FA0002D415445434D44524553554C542D2D2DC0
:104FB000204641494C0000000D0A2D2D2D4154453D
:104FC000434D44524553554C542D2D2D204F4B00ED
:104FD0000D0A436F6D6D616E64206E6F7420726593
:104FE000636F676E697365642E2020456E74657209
:104FF000202768656C702720746F2076696577209C
:1050000061206C697374206F6620617661696C61E0
:10501000626C6520636F6D6D616E64732E000000BD
:105020002000000008200800200800000D0A626926
:10503000746F6877203A000068656C7000000000AB
:105040005372632F757362645F636F6E662E6300C5
:1050500053544D3332205669727475616C20436F1E
:105060006D506F727400000053544D6963726F6528
:105070006C656374726F6E6963730000303030303A
:1050800030303030303031410000000043444320A4
:10509000436F6E666967000043444320496E746540
:1050A00072666163650000000000000000000000FF
:1050B00001020304060708090000000001020304BE
:1050C000430000006001002000000000000000001C
:1050D00000000000000000000000000000000000D0
:1050E00000000000000000000000000000000000C0
:1050F00000000000000000000000000000000000B0
:10510000000000000000000000000000000000009F
:10511000000000000000000000000000000000008F
:105120000000000000000000232D302B2000686CE0
:105130004C006566674546470030313233343536BA
:1051400037383941424344454600303132333435F3
:0C51500036373839616263646566000020
:04515C0079010008CD
:0451600051010008F1
:10516400350F0008410F0008710F00084D0F0008AB
:105174008D0F0008B10F0008D50F000804030904BF
:10518400120100020202004083044057000201029F
:105194000301000029100008F90F0008FD0F0008A2
:1051A40001100008100000000100000000A24A04E1
:1051B40009024300020100C0320904000001020296
:1051C4000100052400100105240100010424020249
:1051D40005240600010705820308001009040100E4
:1051E400020A0000000705010240000007058102D1
:1051F400400000003D3D0008013D00088D3C0008D2
:1052040000000000053C0008F13B00085D3C00087C
:10521400000000000000000000000000393C00080D
:105224002D3C0008453C0008513C00080A060002D9
:10523400000000400100000009074300020104C00F
:1052440032090400000102020100052400100105D6
:10525400240100010424020205240600010705823A
:10526400030800FF09040100020A00000007050109
:1052740002400000070581024000000009024300CB
:10528400020100C0320904000001020201000524E9
:105294000010010524010001042402020524060073
:1052A400010705820308001009040100020A000036
:1052B4000007050102000200070581020002000048
:1052C40000000000C8500008E85000080851000819
:1052D40000000000000000000000000000000000CA
:1052E400C0500008000000000000000000000000A2
:1052F40000000000000000000000000000000000AA
:105304000000000000000000000000000000000099
:105314000000000000000000000000000000000089
:045324006001002004
:0400000508003E654C
:00000001FF
