:020000040800F2
:1000000000500020A96F0008994200089B42000898
:100010009D4200089F420008A14200080000000025
:10002000000000000000000000000000A3420008E3
:10003000A542000800000000A7420008A9420008ED
:10004000F16F0008F16F0008F16F0008F16F000810
:10005000F16F0008F16F0008F16F0008F16F000800
:10006000F16F0008F16F0008F16F0008F16F0008F0
:10007000F16F0008F16F0008F16F0008F16F0008E0
:10008000F16F0008F16F0008F16F0008F16F0008D0
:10009000B5420008F16F0008F16F0008F16F000829
:1000A000F16F0008F16F0008F16F0008F16F0008B0
:1000B000F16F0008F16F0008F16F0008F16F0008A0
:1000C000F16F0008F16F0008F16F0008F16F000890
:1000D000F16F0008F16F0008F16F0008F16F000880
:1000E000F16F0008F16F0008F16F000800000000D8
:1000F0000000000000000000000000000000000000
:0C01000000000000000000005FF808F1A3
:10010C00044B05481B1A062B02D9044B03B11847A4
:10011C00704700BFC7010020C40100200000000090
:10012C0005490648091A891001EBD171491002D012
:10013C00034B03B118477047C4010020C4010020D1
:10014C000000000010B5064C237843B9FFF7D8FF28
:10015C00044B13B10448AFF300800123237010BD8E
:10016C00C401002000000000F46F000808B5084B23
:10017C001BB108490848AFF300800848036813B95D
:10018C00BDE80840CCE7064B002BF9D09847F7E7C1
:10019C0000000000C8010020F46F0008C40100201A
:1001AC000000000004309FE5000093E51EFF2FE1E6
:1001BC000000002070402DE964609FE564509FE5CD
:1001CC00066065E04661B0E10040A0130500000A3E
:1001DC00014084E2043095E40FE0A0E113FF2FE12D
:1001EC00040056E1F9FFFF1A3C609FE53C509FE587
:1001FC00066065E07B1B00FA4661B0E10040A0138D
:10020C000500000A014084E2043095E40FE0A0E10F
:10021C0013FF2FE1040056E1F9FFFF1A7040BDE80F
:10022C001EFF2FE14C7200084C720008507200083F
:10023C004C7200080F0052E3F0402DE92900009A9F
:10024C00003081E1030013E33100001A02E0A0E169
:10025C0010C080E2103081E2107013E50C6013E5E1
:10026C00085013E5044013E510E04EE20F005EE386
:10027C0010700CE50C600CE508500CE504400CE526
:10028C00103083E210C08CE2F2FFFF8A103042E2A1
:10029C000F30C3E30F6002E2103083E2030056E339
:1002AC00031081E0033080E01B00009A0140A0E1C4
:1002BC0006C0A0E104E043E204C04CE2045094E424
:1002CC0003005CE30450AEE5FAFFFF8A04C046E28B
:1002DC0003C0CCE304C08CE20C3083E00C1081E052
:1002EC00032002E2000000EA0030A0E1000052E32B
:1002FC000500000A013043E2022081E001C0D1E494
:10030C00020051E101C0E3E5FBFFFF1AF040BDE83C
:10031C001EFF2FE10030A0E1F5FFFFEA0620A0E16F
:10032C00F1FFFFEA030010E310402DE93700000A4B
:10033C00000052E3012042E23200000AFFC001E259
:10034C000030A0E1020000EA000052E3012042E28A
:10035C002C00000A01C0C3E4030013E3F9FFFF1AE9
:10036C00030052E32000009AFFE001E20EE48EE16C
:10037C000F0052E30EE88EE11000009A0240A0E15B
:10038C0010C083E2104044E20F0054E310E00CE58F
:10039C000CE00CE508E00CE504E00CE510C08CE288
:1003AC00F7FFFF8A10C042E20FC0CCE30F2002E23D
:1003BC0010C08CE2030052E30C3083E00A00009A78
:1003CC000340A0E102C0A0E104C04CE203005CE3E6
:1003DC0004E084E4FBFFFF8A04C042E203C0CCE3E8
:1003EC0004C08CE20C3083E0032002E2000052E3F4
:1003FC00FF100112022083100200000A0110C3E456
:10040C00020053E1FCFFFF1A1040BDE81EFF2FE174
:10041C000030A0E1D1FFFFEA0E002DE910402DE9DC
:10042C00004050E20CD04DE20200000A183094E576
:10043C00000053E30B04000B18C08DE20C30A0E15C
:10044C0014209DE5081094E50400A0E104C08DE59E
:10045C009E0500EB0CD08DE21040BDE80CD08DE277
:10046C001EFF2FE10F002DE94C309FE510402DE9C8
:10047C00004093E5000054E308D04DE20300000A6D
:10048C00183094E5000053E30400A001F503000BC1
:10049C0014C08DE20C30A0E110209DE5081094E50D
:1004AC000400A0E104C08DE5880500EB08D08DE2C6
:1004BC001040BDE810D08DE21EFF2FE1000000209F
:1004CC0010402DE9004050E208D04DE20500000A32
:1004DC00183094E5000053E30200001A04108DE577
:1004EC00E00300EB04109DE5082094E50400A0E176
:1004FC00DE0700EB08D08DE21040BDE81EFF2FE1B7
:10050C0038309FE570402DE9004093E5000054E33E
:10051C000050A0E10300000A183094E5000053E3FA
:10052C000400A001CF03000B0510A0E1082094E506
:10053C000400A0E1CD0700EB7040BDE81EFF2FE1E9
:10054C0000000020F0432DE918C29FE500509CE507
:10055C00000055E30CD04DE20040A0E10170A0E199
:10056C000280A0E10360A0E10200000A183095E5CA
:10057C00000053E36800000AEC319FE5030054E1EE
:10058C00044095050600000AE0319FE5030054E1A4
:10059C00084095050200000AD4319FE5030054E1A0
:1005AC000C409505020058E30400000A010058E3D2
:1005BC000030A0930130A083A63F93E16700001A9E
:1005CC000410A0E10500A0E1A70200EB341094E5B3
:1005DC00000051E30500000A443084E2030051E1BD
:1005EC000500A0116C04001B0030A0E3343084E53E
:1005FC000020A0E3FC30D4E1800013E3182084E554
:10060C00042084E53F00001ACA3EC3E30330C3E371
:10061C00020058E3BC30C4E12D00000A04308DE226
:10062C000D20A0E10410A0E10500A0E1EB0300EB1C
:10063C00BC30D4E1000056E3000083E1BC00C4E10F
:10064C001A00000A000057E31900000A183095E55B
:10065C00000053E33300000AFC30D4E1010058E3FE
:10066C0001308303BC30C4010338A0E1020703E26C
:10067C002008B0E1007084E5107084E5146084E516
:10068C002338A0E1080084050500000A010013E2EC
:10069C000000A01300606612186084150800841511
:1006AC00086084050CD08DE2F043BDE81EFF2FE1FD
:1006BC0000609DE50600A0E1270400EB007050E20D
:1006CC001B00000ABC30D4E1803083E3BC30C4E1B1
:1006DC00DDFFFFEA0000A0E300C0A0E30110A0E3EF
:1006EC00472084E2023083E3BC30C4E108C084E5D7
:1006FC00141084E5002084E5102084E50CD08DE2F4
:10070C00F043BDE81EFF2FE1101094E50500A0E1B9
:10071C00210400EBFC30D4E1BAFFFFEA0500A0E1B4
:10072C00500300EB93FFFFEA0500A0E14D0300EB43
:10073C00C8FFFFEA00909DE5060059E10400000A9D
:10074C000900A0E1040400EB007050E20960A01164
:10075C00DBFFFF1AFC30D4E10000E0E3DDFFFFEA31
:10076C000000E0E3CEFFFFEA000000206470000808
:10077C004470000824700008FFC011E210402DE9FD
:10078C002E00000A030010E30E00000A0030D0E532
:10079C00000053E34C00000A03005CE12500000A52
:1007AC00013080E2040000EA0120D3E4000052E3AF
:1007BC004200000A02005CE11E00000A030013E381
:1007CC000300A0E1F7FFFF1A0144A0E1FF4C04E293
:1007DC000C4084E1001090E5044884E1000000EA3C
:1007EC000410B0E5EC309FE50320A0E101E024E02B
:1007FC00022081E003308EE00120C2E10E30C3E123
:10080C00D4109FE5033082E1031001E0000051E3B6
:10081C00F2FFFF0A0030D0E5000053E30300001A9A
:10082C00290000EA0130F0E5000053E32600000A3D
:10083C0003005CE1FAFFFF1A1040BDE81EFF2FE138
:10084C00030010E30B00000A0030D0E5000053E376
:10085C00F8FFFF0A013080E2030000EA0020D0E537
:10086C00000052E3013083E2F2FFFF0A030013E3BE
:10087C000300A0E1F8FFFF1A001090E5000000EA69
:10088C000410B0E54C309FE54C209FE5033081E02F
:10089C000130C3E1032002E0000052E3F7FFFF0A3E
:1008AC000030D0E5000053E3E2FFFF0A0130F0E531
:1008BC00000053E3FCFFFF1A1040BDE81EFF2FE1C0
:1008CC000200A0E11040BDE81EFF2FE10300A0E1F3
:1008DC001040BDE81EFF2FE1FFFEFEFE80808080F1
:1008EC0001C020E003001CE32100001A03C010E249
:1008FC000300C0E30310C1E3042090E4043091042E
:10090C000600000A03C02CE2FF34E0E38CC1A0E136
:10091C0033CCA0E1043091E40C2082E10C3083E173
:10092C0004402DE50140A0E3044484E1044884E143
:10093C0004C042E0030052E102C0CC0184031C015C
:10094C000420900404309104F8FFFF0A020CA0E18B
:10095C002224A0E1010050E3030C50212334A00118
:10096C00F9FFFF0AFF3003E2200C63E004409DE432
:10097C001EFF2FE1030010E30600000A0120D0E463
:10098C000130D1E4010052E303005221F8FFFF0AC9
:10099C00030042E01EFF2FE130002DE90140A0E3EF
:1009AC00044484E1044884E1042090E4035001E20F
:1009BC000310C1E3043091E4020055E31700000A70
:1009CC002D00008AFF54C2E3230455E104C042E029
:1009DC0002C0CCE10700001A84C31CE0043091046F
:1009EC000600001A025025E0030C55E10800001A1D
:1009FC00042090E4F2FFFFEA2334A0E1360000EA81
:100A0C00FFC4DCE33100001A0030D1E5225CA0E128
:100A1C00310000EA225CA0E1FF3003E22E0000EA84
:100A2C000258A0E104C042E02558A0E102C0CCE18C
:100A3C00230855E10E00001A84C31CE00430910415
:100A4C000400001A025025E0030855E10600001AC4
:100A5C00042090E4F1FFFFEA0CC8B0E11B00001A7F
:100A6C00B030D1E12258A0E11B0000EA0338A0E12C
:100A7C002258A0E12338A0E1170000EAFF5002E25F
:100A8C00230C55E104C042E002C0CCE10700001A7F
:100A9C0084C31CE0043091040600001A025025E0C7
:100AAC00030455E10600001A042090E4F2FFFFEA6B
:100ABC00233CA0E1080000EAFF0012E30300000A57
:100ACC00043091E42254A0E1FF34C3E3020000EAB5
:100ADC000000A0E33000BDE81EFF2FE1FF2005E27F
:100AEC00FF0003E2010050E3020050212554A00155
:100AFC002334A001F8FFFF0A000042E03000BDE8FB
:100B0C001EFF2FE1012020E000C0A0E1030012E352
:100B1C003200001A030011E32100001A04502DE5E5
:100B2C000150A0E3055485E1055885E104402DE50D
:100B3C00040011E3043091E40500000A052043E0B1
:100B4C000320D2E1850312E104308C0404309104BB
:100B5C000C00001A044091E4052043E00320D2E18C
:100B6C00850312E1052044E00600001A04308CE4F1
:100B7C000420D2E1850312E10430910404408C047A
:100B8C00F3FFFF0A0430A0E10130CCE4FF0013E3D3
:100B9C006334A0E1FBFFFF1A04409DE404509DE484
:100BAC001EFF2FE1010011E30300000A0120D1E434
:100BBC000120CCE4000052E31EFF2F01020011E3E0
:100BCC00D5FFFF0AB220D1E0FF0012E3B220CC1017
:100BDC000020CC05FF0C1213CFFFFF1A1EFF2FE1D4
:100BEC000120D1E40120CCE4000052E3FBFFFF1A0A
:100BFC001EFF2FE10310C0E3030010E2000060E2CF
:100C0C00043091E404C080E28CC1A0E10020E0E358
:100C1C00323C831101C0A0E30CC48CE10CC88CE104
:100C2C000C2043E00320C2E18C2312E00430910439
:100C3C0004008002F9FFFF0AFF0013E30100801299
:100C4C00FF0C131301008012FF0813130100801214
:100C5C001EFF2FE1000052E33B00000A013080E14F
:100C6C00033013E270402DE92300001A030052E315
:100C7C002100009A00E090E500C091E50C005EE1D7
:100C8C001D00001A042052E23400000ADCC09FE56B
:100C9C00DC409FE50CC08EE00EC0CCE10C4004E0C3
:100CAC00000054E304508002044081020C00000A4E
:100CBC002C0000EA04C095E4006094E503308CE05D
:100CCC000C30C3E106005CE103E00EE0044084E27A
:100CDC000900001A042052E22000000A00005EE322
:100CEC001B00001A030052E380309FE580E09FE573
:100CFC000500A0E10410A0E1EDFFFF8A0030D0E573
:100D0C0000C0D1E503005CE1012042E20B00001AB7
:100D1C00000052E300005C130300001A0C0000EA10
:100D2C00000052E3000053130900000A0130F0E503
:100D3C0001C0F1E50C0053E1012042E2F7FFFF0A8C
:100D4C0003006CE07040BDE81EFF2FE10200A0E143
:100D5C001EFF2FE10000A0E37040BDE81EFF2FE155
:100D6C000200A0E1F6FFFFEA0300A0E1F4FFFFEAB6
:100D7C00FFFEFEFE80808080013080E1030013E3E3
:100D8C000130A0030030A013030052E30030A09305
:100D9C0001300382000053E330402DE90030A00104
:100DAC000F00000A01E0A0E10030A0E10E10A0E16C
:100DBC009CC09FE504509EE498409FE50CC085E0E4
:100DCC0005C0CCE10C4004E0000054E30600001A1E
:100DDC00042042E2030052E3045083E40E10A0E12D
:100DEC00F1FFFF8A000052E30E00000A00C0D1E5BB
:100DFC0000005CE300C0C3E5012042E2013083E265
:100E0C00011081E20500001A080000EA01C0D1E4DB
:100E1C0000005CE3012042E201C0C3E40300000ACD
:100E2C00000052E3F8FFFF1A3040BDE81EFF2FE12F
:100E3C00000052E30010A01302208310F9FFFF0AF8
:100E4C000110C3E4030052E1FCFFFF1A3040BDE87F
:100E5C001EFF2FE1FFFEFEFE80808080BC30D1E1C2
:100E6C00080013E3F0412DE90150A0E10070A0E16E
:100E7C002D00001A042091E5000052E34A0000DA2C
:100E8C002C6095E5000056E34A00000A0020A0E320
:100E9C00014A13E2008097E5002087E55900000A1B
:100EAC00542095E5040013E30500000A341095E581
:100EBC00043095E5000051E3022063E040309515C5
:100ECC00022063100030A0E3201095E50700A0E19C
:100EDC000FE0A0E116FF2FE1010070E33800000ADB
:100EEC000020A0E3BC10D5E1103095E5010A11E318
:100EFC00042085E5003085E54000001A341095E5A6
:100F0C00000051E3008087E52A00000A443085E2A6
:100F1C00030051E10700A0111F02001B0000A0E319
:100F2C00340085E5F041BDE81EFF2FE1106091E52E
:100F3C00000056E31F00000A030013E30030A01367
:100F4C00004091E514309105044066E0000054E344
:100F5C00006081E5083081E5030000CA150000EA55
:100F6C00000054E3006086E0120000DA0430A0E1D7
:100F7C000620A0E1201095E50700A0E128C095E52A
:100F8C000FE0A0E11CFF2FE1000050E3044060E003
:100F9C00F2FFFFCA0000E0E3BC30D5E1403083E350
:100FAC00BC30C5E1F041BDE81EFF2FE1402091E5CA
:100FBC00000052E3B1FFFFCA0000A0E3F041BDE81E
:100FCC001EFF2FE1002097E51D0052E3F0FFFF8A82
:100FDC0090309FE53332A0E1013003E2013033E27F
:100FEC00EBFFFF1ABCC0D5E1101095E5010A1CE31C
:100FFC000A0085E8C0FFFF0A000052E3BEFFFF1A9B
:10100C00540085E5BCFFFFEA0420A0E10130A0E319
:10101C00201095E50700A0E10FE0A0E116FF2FE1FD
:10102C00010070E30020A0E10200000ABC30D5E111
:10103C002C6095E59AFFFFEA003097E5000053E33A
:10104C00F9FFFF0A160053E31D005313BC30D511F2
:10105C0040308313008087050400A0010200A0111A
:10106C00BC30C511CEFFFFEA01004020103091E5E5
:10107C00000053E32100000A10402DE9000050E36A
:10108C0008D04DE20040A0E10200000A183090E5C3
:10109C00000053E31500000A68309FE5030051E19E
:1010AC00041094050600000A5C309FE5030051E132
:1010BC00081094050200000A50309FE5030051E12E
:1010CC000C109405FC30D1E1000053E30300001A2E
:1010DC000000A0E308D08DE21040BDE81EFF2FE118
:1010EC000400A0E108D08DE21040BDE85AFFFFEAF1
:1010FC0004108DE5DB0000EB04109DE5E5FFFFEA35
:10110C000000A0E31EFF2FE164700008447000088B
:10111C0024700008001050E220309F150000931539
:10112C00D1FFFF1A10402DE914309FE514109FE5F4
:10113C00000093E5060100EB1040BDE81EFF2FE117
:10114C000000002020700008781000080000A0E3C8
:10115C001EFF2FE110402DE908109FE5FC0000EB6D
:10116C001040BDE81EFF2FE1781000080000A0E33E
:10117C001EFF2FE1013041E270402DE9834083E0F6
:10118C00043183E08341A0E10160A0E1741084E2AA
:10119C00BF0100EB005050E20600000A0010A0E373
:1011AC000C0085E2046085E5682084E2001085E58A
:1011BC00080085E55AFCFFEB0500A0E17040BDE896
:1011CC001EFF2FE1E0309FE570402DE9005093E5C4
:1011DC00183095E5000053E30060A0E10500A00184
:1011EC003200000B485085E2043095E5013053E2A3
:1011FC00084095E50400005A1D0000EA013043E266
:10120C00010073E3684084E21900000AFC20D4E179
:10121C00000052E3F8FFFF1A0050A0E30020E0E3C7
:10122C000130A0E3BE20C4E1BC30C4E1645084E5CD
:10123C00005084E5085084E5045084E5105084E5A2
:10124C00145084E5185084E50510A0E10820A0E3B3
:10125C005C0084E232FCFFEB0400A0E1345084E536
:10126C00385084E5485084E54C5084E57040BDE826
:10127C001EFF2FE1003095E5000053E30350A01151
:10128C00D8FFFF1A0410A0E30600A0E1B8FFFFEBA3
:10129C00000050E3000085E50050A011D1FFFF1ABB
:1012AC000C30A0E3003086E5EFFFFFEA2070000869
:1012BC000030A0E370219FE5001092E5010050E1A1
:1012CC00F04F2DE9483080E54C3080E5503080E51A
:1012DC000130A00354219FE50CD04DE2183080055D
:1012EC00282080E50070A0E1B5FFFFEB040087E546
:1012FC000700A0E1B2FFFFEB080087E50700A0E1C3
:10130C000040A0E3AEFFFFEB0430A0E3045097E5F0
:10131C000C0087E50410A0E1004085E5044085E55C
:10132C00084085E5644085E5BE40C5E1104085E593
:10133C00144085E5184085E5BC30C5E15C0085E2CC
:10134C000820A0E3F6FBFFEB0130A0E30920A0E3AB
:10135C00086097E5D8B09FE5D8A09FE5D8909FE5A9
:10136C00D8809FE524B085E528A085E52C9085E5FF
:10137C00308085E5205085E50410A0E1BE30C6E143
:10138C00BC20C6E1004086E5044086E5084086E5C1
:10139C00644086E5104086E5144086E5184086E5F5
:1013AC005C0086E20820A0E304308DE5DCFBFFEB5B
:1013BC001200A0E30220A0E30C5097E50410A0E17A
:1013CC00206086E524B086E528A086E52C9086E58D
:1013DC00308086E5BC00C5E1BE20C5E1004085E556
:1013EC00044085E5084085E5644085E5104085E5C9
:1013FC00144085E5184085E55C0085E20820A0E3F3
:10140C00C7FBFFEB04309DE5205085E524B085E556
:10141C0028A085E52C9085E5308085E5183087E59A
:10142C000CD08DE2F04FBDE81EFF2FE120700008BC
:10143C0060110008502600088C260008E4260008DD
:10144C001427000810402DE910309FE510109FE57F
:10145C00000093E53E0000EB1040BDE81EFF2FE1BD
:10146C002070000878100008183090E5000053E355
:10147C001EFF2F118DFFFFEA1EFF2FE11EFF2FE134
:10148C001EFF2FE11EFF2FE110402DE910309FE5CC
:10149C0010109FE5000093E50C0000EB1040BDE838
:1014AC001EFF2FE1000000207811000810402DE9EC
:1014BC0010309FE510109FE5000093E5030000EB52
:1014CC001040BDE81EFF2FE100000020581100085D
:1014DC00F0412DE9487090E21900000A0180A0E16A
:1014EC000060A0E3045097E5015055E2084097E5F1
:1014FC000D00004ABC30D4E1010053E3015045E239
:10150C000600009AFE30D4E1010073E30300000AE8
:10151C000400A0E10FE0A0E118FF2FE1006086E1DC
:10152C00010075E3684084E2F1FFFF1A007097E553
:10153C00000057E3EAFFFF1A0600A0E1F041BDE806
:10154C001EFF2FE10760A0E10600A0E1F041BDE81D
:10155C001EFF2FE1F0472DE9486090E21B00000AC6
:10156C000180A0E10070A0E10090A0E3045096E59A
:10157C00015055E2084096E50E00004ABC30D4E11B
:10158C00010053E3015045E20700009AFE30D4E11C
:10159C00010073E30400000A0410A0E10700A0E1BD
:1015AC000FE0A0E118FF2FE1009089E1010075E345
:1015BC00684084E2F0FFFF1A006096E5000056E3F5
:1015CC00E9FFFF1A0900A0E1F047BDE81EFF2FE17B
:1015DC000690A0E10900A0E1F047BDE81EFF2FE155
:1015EC0070402DE90140A0E1FE10D1E1000051E373
:1015FC0040D04DE20250A0E10360A0E10F0000BA20
:10160C0004208DE2230500EB000050E30B0000BA30
:10161C0008209DE50F2A02E2023A42E2002073E222
:10162C000320A2E0013BA0E3002086E5003085E525
:10163C000000A0E340D08DE27040BDE81EFF2FE11A
:10164C000030A0E3BC20D4E1800012E3003086E53A
:10165C004030A01300308515F4FFFF1A013BA0E3C6
:10166C000000A0E3003085E540D08DE27040BDE87D
:10167C001EFF2FE1BC20D1E1020012E30130A0E1FA
:10168C000500000A0110A0E3472083E2141083E553
:10169C00002083E5102083E51EFF2FE170402DE92B
:1016AC0008D04DE204308DE20D20A0E10140A0E114
:1016BC000050A0E1C9FFFFEB00109DE50060A0E128
:1016CC000500A0E1720000EB000050E3FC30D4E117
:1016DC001600000A04C09DE578109FE500209DE5EA
:1016EC00803083E300005CE3281085E5BC30C4E166
:1016FC00000084E5100084E5142084E50400001A41
:10170C00063083E1BC30C4E108D08DE27040BDE806
:10171C001EFF2FE10500A0E1FE10D4E1200600EB36
:10172C00FC30D4E1000050E301308313F3FFFFEAF7
:10173C00020C13E3F3FFFF1A0110A0E3472084E22D
:10174C00023083E3BC30C4E1141084E5002084E54E
:10175C00102084E5EBFFFFEA6011000810402DE932
:10176C0010309FE50010A0E1000093E5480000EB6D
:10177C001040BDE81EFF2FE10000002010402DE9B5
:10178C0010309FE50010A0E1000093E5020000EB93
:10179C001040BDE81EFF2FE100000020000051E3C7
:1017AC001EFF2F01043011E5041041E2000053E349
:1017BC00031081B0D4309FE5002093E5000052E384
:1017CC000500000A010052E10700009A000091E5B3
:1017DC0000C081E00C0052E12700000A042081E5E2
:1017EC00001083E51EFF2FE10320A0E1043092E5F9
:1017FC0000C093E201C0A013010053E100C0A0831C
:10180C0000005CE3F7FFFF1A00C092E504E02DE551
:10181C000CE082E001005EE10D00000A0C30A083B8
:10182C00003080850800008A000091E500C081E04E
:10183C000C0053E100C093050430930500008C00AC
:10184C000900810804308115041082E504E09DE450
:10185C001EFF2FE10200A0E1001091E501C08CE019
:10186C000CC080E6000053E10A0093080CC0810014
:10187C0000C0820504308205F3FFFFEA00C092E548
:10188C00042092E500008CE0050081E8D3FFFFEA1C
:10189C00E001002070402DE9035081E20350C5E3C4
:1018AC00085085E20C0055E30C50A033050051E1C3
:1018BC000010A0930110A083A53F91E10060A0E16E
:1018CC003600001A10119FE5002091E5000052E34C
:1018DC000A00000A003092E5053053E00400004A8B
:1018EC00330000EA003094E5053053E01700005A4D
:1018FC000420A0E1044092E5000054E3F8FFFF1A35
:10190C00041091E5000051E3CC409FE52E00000A45
:10191C000510A0E10600A0E1380300EB010070E324
:10192C001E00000A034080E20340C4E3040050E1BF
:10193C000400000A041060E00600A0E12F0300EB95
:10194C00010070E31500000A005084E5030000EA72
:10195C000B0053E30900009A003084E50350A4E720
:10196C000B0084E20700C0E3043084E2033050E053
:10197C0000206312032084177040BDE81EFF2FE186
:10198C00020054E10430941504308215F3FFFF1A61
:10199C000230A0E10240A0E1003081E5EFFFFFEA58
:1019AC000C30A0E30000A0E3003086E57040BDE8F9
:1019BC001EFF2FE10B0053E3043092950240A091DF
:1019CC00F4FFFF9A0240A0E1E2FFFFEA0600A0E16B
:1019DC000A0300EB040084E5CCFFFFEAE0010020E1
:1019EC00083092E5013043E2000053E310402DE94A
:1019FC00083082E5070000BAFF3001E200C092E532
:101A0C0001E08CE200E082E50010CCE50300A0E1EF
:101A1C001040BDE81EFF2FE118C092E50C0053E109
:101A2C00020000BAFF3001E20A0053E3F2FFFF1A92
:101A3C00390300EB1040BDE81EFF2FE1000053E31B
:101A4C001200000AF0412DE90240A0E10170A0E172
:101A5C000060A0E1035082E0010000EA050054E1BF
:101A6C000700000A0720A0E10110D4E40600A0E161
:101A7C00DAFFFFEB010070E3F7FFFF1AF041BDE85E
:101A8C001EFF2FE10000A0E3F041BDE81EFF2FE197
:101A9C000000A0E31EFF2FE1083092E5000053E3A5
:101AAC000200001A043082E50300A0E11EFF2FE1C2
:101ABC0010402DE90240A0E1070400EB0030A0E348
:101ACC00083084E5043084E51040BDE81EFF2FE1AA
:101ADC00F04F2DE900B050E274D04DE201A0A0E12E
:101AEC000240A0E10C308DE50200000A18309BE5A5
:101AFC00000053E3CD00000A38339FE503005AE1A0
:101B0C0004A09B050600000A2C339FE503005AE154
:101B1C0008A09B050200000A20339FE503005AE150
:101B2C000CA09B05BC30DAE1080013E3B800000AF6
:101B3C0010309AE5000053E3B500000A0070A0E3F2
:101B4C002020A0E33030A0E30450A0E124708DE508
:101B5C002920CDE52A30CDE5E4629FE50030D5E5BE
:101B6C00250053E3000053130580A0E10500000A93
:101B7C000130F8E5000053E325005313FBFFFF1A77
:101B8C00054058E05400001A0030D8E5000053E33B
:101B9C005E00000A0030E0E310708DE51C708DE5EE
:101BAC0018708DE55370CDE568708DE5018088E285
:101BBC0014308DE50140A0E3020000EA000066E06D
:101BCC00140083E110008DE50010D8E50520A0E39A
:101BDC006C029FE5130500EB000050E30850A0E1F8
:101BEC0010309DE5018088E2F3FFFF1A100013E32B
:101BFC002020A0135320CD15080013E32B20A01395
:101C0C000010D5E55320CD152A0051E35D00000AE4
:101C1C00302041E2090052E31C309D950600008AF9
:101C2C000110F5E5033183E0833082E0302041E29E
:101C3C00090052E3F9FFFF9A1C308DE52E0051E3A9
:101C4C003F00000A0320A0E3F8019FE5F50400EB38
:101C5C00000050E30600000A4020A0E3E4119FE5D9
:101C6C0010309DE5000061E0120083E110008DE56D
:101C7C00015085E20030D5E50620A0E30310A0E179
:101C8C00C4019FE52830CDE5E60400EB000050E3ED
:101C9C00015085E25500000AB0319FE5000053E386
:101CAC002100000A0C308DE200308DE50A20A0E105
:101CBC009C319FE510108DE20B00A0E100F020E3B9
:101CCC000090A0E1010079E31000000A24309DE5AA
:101CDC00093083E024308DE59FFFFFEA0520A0E169
:101CEC000430A0E10A10A0E10B00A0E152FFFFEBD1
:101CFC00010070E30500000A24309DE5044083E0F8
:101D0C000030D8E5000053E324408DE5A0FFFF1A16
:101D1C00BC30DAE1400013E34200001A24009DE5D8
:101D2C0074D08DE2F04FBDE81EFF2FE10C309DE525
:101D3C00073083E20730C3E3083083E20C308DE5D3
:101D4C00E1FFFFEA0110D5E52A0051E31A00000A71
:101D5C00302041E2090052E3015085E214708DE518
:101D6C00B7FFFF8A0030A0E30110F5E5033183E0F3
:101D7C00833082E0302041E2090052E3F9FFFF9A00
:101D8C0014308DE5AEFFFFEA0C209DE5001092E5C6
:101D9C00000051E3001061B2042082E2023083B3F0
:101DAC001C108DA51C108DB50C208DE50110D5E5F2
:101DBC0010308DB5015085E29FFFFFEA0C309DE598
:101DCC00002093E5000052E314208DE50020E0B3E1
:101DDC00043083E20C308DE5023085E20210D5A58B
:101DEC000210D5B514208DB50350A0E194FFFFEA85
:101DFC000C308DE200308DE50A20A0E150309FE5DB
:101E0C0010108DE20B00A0E18E0000EB0090A0E121
:101E1C00ABFFFFEA0A10A0E10B00A0E1A70200EB68
:101E2C00000050E344FFFF0A0000E0E3BBFFFFEAC1
:101E3C008CFDFFEB2FFFFFEA647000084470000874
:101E4C002470000810720008187200081C72000838
:101E5C0000000000481A000810C09FE50230A0E105
:101E6C000120A0E10010A0E100009CE517FFFFEAB3
:101E7C0000000020F0472DE90140A0E1101091E591
:101E8C0008C094E50C0051E10C10A0B10290A0E147
:101E9C00001082E54320D4E5000052E301108112CA
:101EAC00001089150370A0E1003094E5200013E3C5
:101EBC000060A0E120809DE55200000A002099E519
:101ECC00022082E2002089E5003094E5060013E34D
:101EDC000310A0E11900001A0C1094E5012062E037
:101EEC00000052E30310A0D1140000DA0050A0E36C
:101EFC0019A084E2040000EA0C3094E5002099E576
:101F0C00033062E0050053E10B0000DA0130A0E37E
:101F1C000A20A0E10710A0E10600A0E10FE0A0E17B
:101F2C0018FF2FE1010070E3015085E2F1FFFF1A69
:101F3C000000E0E3F047BDE81EFF2FE1001094E540
:101F4C004330D4E5003093E20130A013200011E3BC
:101F5C000700000A3010A0E3032084E04310C2E520
:101F6C00012083E24510D4E5022084E04310C2E551
:101F7C00023083E2432084E20710A0E10600A0E1D6
:101F8C000FE0A0E118FF2FE1010070E3E7FFFF0A6B
:101F9C00003094E5063003E2043053E20130A01324
:101FAC00002099E50C9094E5099062E0A93F93E13B
:101FBC00102094E5083094E51900001A020053E152
:101FCC001A0000CA000059E31B00000A0050A0E3ED
:101FDC001A4084E2010000EA090055E11600000AEB
:101FEC000130A0E30420A0E10710A0E10600A0E16D
:101FFC000FE0A0E118FF2FE1010070E3015085E232
:10200C00F4FFFF1AC9FFFFEA060013E3002099054D
:10201C00B0FFFF0A4330D4E5003093E20130A01347
:10202C00D3FFFFEA020053E10090A0C3020000DAE4
:10203C00033062E0039089E0E3FFFFEA0000A0E3D5
:10204C00F047BDE81EFF2FE1F04F2DE90140A0E164
:10205C001810D1E51CD04DE20390A0E16E0051E3C5
:10206C00433084E20C308DE50070A0E10280A0E1E9
:10207C0040309DE53C00000A0A00008A630051E3F1
:10208C00CB00000AA800008A000051E33F00000AC0
:10209C00580051E3CF00001A4510C4E5002094E528
:1020AC00C0A39FE50C0000EA730051E3B000000AE6
:1020BC006B00008A6F0051E3CB00000A700051E303
:1020CC00C400001A002094E5202082E3002084E55F
:1020DC007810A0E390A39FE54510C4E5001093E5AC
:1020EC00800012E3040081E2000083E58400001A02
:1020FC00400012E38200000AB0B0D1E11060A0E30E
:10210C00010012E3202082130020841500005BE301
:10211C00002094052020C203002084050020A0E3A9
:10212C004320C4E5042094E5000052E3082084E534
:10213C00770000BA001094E500005BE30410C1E3E3
:10214C00001084E55700001A000052E3435084024B
:10215C007100001A080056E35F00000A0C309DE580
:10216C0003B065E010B084E50B0000EA002094E5B4
:10217C00800012E3A900000A002093E5041082E21B
:10218C00001083E5141094E5003092E5001083E50F
:10219C000030A0E3103084E5435084E200908DE5DC
:1021AC000830A0E114208DE20410A0E10700A0E1AA
:1021BC002FFFFFEB010070E32000000A0520A0E1D7
:1021CC00103094E50810A0E10700A0E10FE0A0E1B9
:1021DC0019FF2FE1010070E31800000A003094E5AC
:1021EC00020013E30C0094E514309DE51700000A7F
:1021FC00002063E0000052E3140000DA0050A0E37A
:10220C00196084E2040000EA0C0094E514309DE5AA
:10221C00002063E0050052E10C0000DA0130A0E37D
:10222C000620A0E10810A0E10700A0E10FE0A0E16A
:10223C0019FF2FE1010070E3015085E2F1FFFF1A55
:10224C000000E0E31CD08DE2F04FBDE81EFF2FE153
:10225C00000053E10300A0A11CD08DE2F04FBDE8BB
:10226C001EFF2FE1750051E35F00000A780051E377
:10227C005800001A002094E594FFFFEA2D00A0E31B
:10228C00041094E5000051E300B06BE24300C4E598
:10229C00081084E51C0000BA0A60A0E30420C2E325
:1022AC00002084E5BCA19FE5435084E20B00A0E133
:1022BC000610A0E12B0400FA0120DAE70B00A0E1E4
:1022CC00012065E50610A0E1210400FA00B050E2FF
:1022DC00F5FFFF1A080056E39FFFFF1A003094E544
:1022EC00010013E39CFFFF0A103094E5042094E5F1
:1022FC00030052E13030A0D3013045D5015045D216
:10230C0095FFFFEA00B091E57BFFFFEA0A60A0E3CE
:10231C0050A19FE500005BE3E2FFFF1A0030DAE515
:10232C00425084E24230C4E589FFFFEA640051E385
:10233C000100000A690051E32600001A002094E510
:10234C00001093E5800012E3040081E2000083E5B5
:10235C000100001A400012E34000001A00B091E5A1
:10236C0000005BE3C4FFFFBA0A60A0E3F4A09FE5A2
:10237C006BFFFFEA002093E5041082E2001083E576
:10238C00005092E50010A0E3042094E50500A0E1C4
:10239C00240300EB000050E304309405003065107A
:1023AC0004308415103084E50030A0E34330C4E5DC
:1023BC0079FFFFEA0110A0E3002093E5040082E21C
:1023CC00002092E5425084E2000083E54220C4E5FF
:1023DC00101084E5F3FFFFEA0130A0E34210C4E5DE
:1023EC00103084E5425084E2EEFFFFEA002094E5D1
:1023FC00800012E31200000A002093E5041082E230
:10240C00001083E500B092E51860D4E56F0056E348
:10241C0050A09FE50A60A0130860A0033EFFFFEAEE
:10242C00400012E3002093E5041082E2001083E5E3
:10243C00141094E5003092E5B010C3110010830520
:10244C0052FFFFEA400012E3002093E5041082E201
:10245C00001083E5B0B0D21100B09205E9FFFFEA9D
:10246C00F0B0D1E1BDFFFFEA247200083872000819
:10247C0070402DE9006050E20150A0E10240A0E163
:10248C000200000A183096E5000053E32200000A0F
:10249C008C309FE5030054E1044096050600000AC9
:1024AC0080309FE5030054E1084096050200000AC5
:1024BC0074309FE5030054E10C409605083094E518
:1024CC00013043E2000053E3083084E5060000BA13
:1024DC00FF0005E2003094E5012083E2002084E552
:1024EC000050C3E57040BDE81EFF2FE1182094E5B5
:1024FC00020053E1020000BAFF0005E20A0050E3BB
:10250C00F3FFFF1A0420A0E10510A0E10600A0E1F2
:10251C00810000EB7040BDE81EFF2FE1D1FBFFEB0B
:10252C00DAFFFFEA647000084470000824700008A9
:10253C00B8309FE570402DE9005093E5000055E35D
:10254C000060A0E10140A0E10200000A183095E50E
:10255C00000053E32200000A94309FE5030054E18D
:10256C00044095050600000A88309FE5030054E1FD
:10257C00084095050200000A7C309FE5030054E1F9
:10258C000C409505083094E5013043E2000053E31C
:10259C00083084E5060000BAFF0006E2003094E53E
:1025AC00012083E2002084E50060C3E57040BDE8B3
:1025BC001EFF2FE1182094E5020053E1020000BA3F
:1025CC00FF0006E20A0050E3F3FFFF1A0420A0E12B
:1025DC000610A0E10500A0E14F0000EB7040BDE843
:1025EC001EFF2FE10500A0E19EFBFFEBD9FFFFEAE8
:1025FC00000000206470000844700008247000087B
:10260C000030A0E370402DE930409FE50050A0E180
:10261C000100A0E1003084E5F60500FA010070E34A
:10262C000100000A7040BDE81EFF2FE1003094E568
:10263C00000053E3003085157040BDE81EFF2FE10C
:10264C006423002010402DE90140A0E1FE10D1E1EF
:10265C00260300EB000050E3543094A5BC30D4B1F9
:10266C00003083A0013AC3B3543084A5BC30C4B14C
:10267C001040BDE81EFF2FE10000A0E31EFF2FE17C
:10268C00F0412DE90140A0E1FC10D1E1010C11E376
:10269C000260A0E10370A0E10050A0E10400000A78
:1026AC00FE10D4E10230A0E30020A0E34B0200EBCB
:1026BC00FC10D4E1011AC1E3BC10C4E10730A0E165
:1026CC000620A0E1FE10D4E10500A0E1690000EBBA
:1026DC00F041BDE81EFF2FE110402DE90140A0E1C3
:1026EC00FE10D1E13D0200EBBC30D4E1010070E3FF
:1026FC00013AC303013A831354008415BC30C4E17E
:10270C001040BDE81EFF2FE110402DE9FE10D1E175
:10271C00D10000EB1040BDE81EFF2FE1F0412DE988
:10272C00005050E20160A0E10240A0E10200000A6A
:10273C00183095E5000053E34300000A10319FE583
:10274C00030054E1044095050600000A04319FE59E
:10275C00030054E1084095050200000AF8309FE59B
:10276C00030054E10C409505BC20D4E1183094E5ED
:10277C00080012E3083084E51B00000A103094E5D1
:10278C00000053E31800000A002094E5141094E5AF
:10279C00023063E0010053E1FF7006E2013083B2C6
:1027AC00210000AA081094E5010082E2011041E228
:1027BC00081084E5000084E50060C2E5142094E56F
:1027CC00030052E11000000ABC30D4E10A0057E3C8
:1027DC000030A01301300302000053E30A00001A7A
:1027EC000700A0E1F041BDE81EFF2FE10410A0E1BD
:1027FC000500A0E1310000EB000050E3103094051F
:10280C00E0FFFF0A0070E0E3F4FFFFEA0410A0E130
:10281C000500A0E114FAFFEB000050E3F8FFFF1AEB
:10282C000700A0E1F041BDE81EFF2FE10410A0E17C
:10283C000500A0E10CFAFFEB000050E3F0FFFF1ADB
:10284C000130A0E3002094E5D5FFFFEA05FBFFEB88
:10285C00B9FFFFEA64700008447000082470000897
:10286C000C309FE50120A0E10010A0E1000093E5F1
:10287C00A9FFFFEA0000002070402DE901E0A0E173
:10288C0000C0A0E330409FE50210A0E10050A0E1A1
:10289C000320A0E10E00A0E100C084E54F0500FB81
:1028AC00010070E30200001A003094E5000053E3CD
:1028BC00003085157040BDE81EFF2FE16423002019
:1028CC0084319FE570402DE9005093E5000055E3FD
:1028DC000060A0E10140A0E10200000A183095E57B
:1028EC00000053E33F00000A60319FE5030054E110
:1028FC00044095050600000A54319FE5030054E19D
:10290C00084095050200000A48319FE5030054E198
:10291C000C409505FC20D4E10238A0E1020713E33A
:10292C002338A0E10C00000A100094E5000050E3ED
:10293C001400000A012013E21B00001A020013E32A
:10294C0014209405000050E3082084E50000A01337
:10295C001D00000A7040BDE81EFF2FE1100013E3BC
:10296C003300000A040013E32100001A100094E560
:10297C00082082E3BC20C4E1000050E30228A0E15F
:10298C002238A0E1EAFFFF1A0A2D03E2020C52E3FF
:10299C00E7FFFF0A0600A0E10410A0E134FBFFEB07
:1029AC00BC30D4E1100094E5E1FFFFEA0020A0E385
:1029BC00143094E5000050E3003063E2183084E5F5
:1029CC00082084E50000A013E1FFFF1AFC30D4E1DD
:1029DC00800013E340308313BC30C4110000E013BB
:1029EC007040BDE81EFF2FE10500A0E19DFAFFEB52
:1029FC00BCFFFFEA341094E5000051E30700000A25
:102A0C00443084E2030051E10200000A0600A0E118
:102A1C0061FBFFEBFC20D4E10030A0E3343084E513
:102A2C000030A0E3100094E52420C2E3090084E800
:102A3C00CEFFFFEA0930A0E3402082E3003086E5B8
:102A4C000000E0E3BC20C4E1C1FFFFEA000000206D
:102A5C006470000844700008247000080030A0E383
:102A6C0070402DE928409FE50050A0E10100A0E155
:102A7C00003084E5EE0400FA010070E30200001A55
:102A8C00003094E5000053E3003085157040BDE83C
:102A9C001EFF2FE16423002001C0A0E10030A0E361
:102AAC0070402DE92C409FE50050A0E10210A0E100
:102ABC000C00A0E1003084E5DE0400FB010070E3B3
:102ACC000200001A003094E5000053E30030851535
:102ADC007040BDE81EFF2FE164230020083092E512
:102AEC00000053E38300000AF04F2DE9FC30D1E1E4
:102AFC000338A0E10CD04DE2020713E30140A0E142
:102B0C0000008DE50260A0E12388A0E12000000A0E
:102B1C00102091E5000052E31D00000A029018E21B
:102B2C00005096E52500000A0080A0E30870A0E1A3
:102B3C0068949FE5000057E36A00000A090057E11A
:102B4C000730A0310930A0210820A0E1201094E525
:102B5C0000009DE528C094E50FE0A0E11CFF2FE1EB
:102B6C00000050E36A0000DA083096E5033060E0BC
:102B7C00000053E3008088E0077060E0083086E5D1
:102B8C00EBFFFF1A0000A0E30CD08DE2F04FBDE884
:102B9C001EFF2FE10410A0E100009DE547FFFFEBB5
:102BAC00000050E3F600001AFC30D4E10338A0E139
:102BBC002388A0E1029018E2005096E5D9FFFF1A95
:102BCC00018018E25900001A0870A0E1000057E3D8
:102BDC004000000A020413E3089094E52338A0E1B6
:102BEC008400000A090057E109A0A0E19700003A0F
:102BFC00120D13E39700000A101094E500A094E561
:102C0C00149094E50AA061E0899089E001008AE2C1
:102C1C00A99F89E0C990A0E1070080E0090050E17C
:102C2C000920A0E10090A0810920A081010B13E3F1
:102C3C00C600000A0210A0E100009DE514FBFFEBAA
:102C4C0000B050E2D000000A0A20A0E1101094E578
:102C5C0077F5FFEBBC30D4E1123DC3E3803083E366
:102C6C00BC30C4E10A008BE009A06AE008A084E54E
:102C7C00149084E507A0A0E10790A0E110B084E5D2
:102C8C00000084E50A20A0E10810A0E12A0100EB75
:102C9C00080094E5009069E00700A0E1002094E5AD
:102CAC000A2082E0089084E5002084E5083096E54F
:102CBC00033060E0000053E3008088E0077060E0C0
:102CCC00083086E5AEFFFF0AFC30D4E1000057E384
:102CDC000338A0E1BEFFFF1A008095E5047095E56E
:102CEC00085085E2B8FFFFEA008095E5047095E591
:102CFC00085085E28EFFFFEA0000A0E31EFF2FE1E3
:102D0C000410A0E100009DE5D7F8FFEB000050E3B4
:102D1C004C00000AFC30D4E10000E0E3403083E3D7
:102D2C00BC30C4E10CD08DE2F04FBDE81EFF2FE1AA
:102D3C0009B0A0E109A0A0E10980A0E1000058E3DE
:102D4C002700000A00005BE35600000A080059E166
:102D5C000910A0310810A021102094E514C094E5AE
:102D6C00083094E5000094E503308CE0020050E15B
:102D7C000020A0930120A083030051E10020A0D3E8
:102D8C00000052E30170A0E16000001A0C0051E158
:102D9C00320000BA0C30A0E10A20A0E1201094E52A
:102DAC0000009DE528C094E50FE0A0E11CFF2FE199
:102DBC00007050E2D6FFFFDA079059E03200000AAB
:102DCC00083096E5033067E0000053E307A08AE083
:102DDC00088067E0083086E569FFFF0A000058E3C9
:102DEC00D7FFFF1A00A095E5048095E500B0A0E39D
:102DFC00085085E2D0FFFFEA000094E5103094E51E
:102E0C00030050E10200008A14A094E50A0057E187
:102E1C002F00002A070059E10790A0210810A0E11B
:102E2C000920A0E1C40000EB083094E5002094E5F3
:102E3C00033069E0092082E0000053E3083084E5A8
:102E4C00002084E5ADFFFF0A0900A0E196FFFFEA30
:102E5C000790A0E107A0A0E1000094E588FFFFEA3D
:102E6C000120A0E10A10A0E1B30000EB082094E5DA
:102E7C00003094E5022067E0073083E0079059E0CA
:102E8C00082084E5003084E5CCFFFF1A0410A0E193
:102E9C0000009DE574F8FFEB000050E39CFFFF1A67
:102EAC0009B0A0E1C5FFFFEA0820A0E10A10A0E3E9
:102EBC000A00A0E15B0000EB000050E301B0A003AE
:102ECC000100801200906A1001B0A0130B908800D2
:102EDC009DFFFFEA060177E30700A0310201E02322
:102EEC000A10A0E1230100FA0820A0E19A0003E0F7
:102EFC00201094E500009DE528C094E50FE0A0E1CA
:102F0C001CFF2FE1000050E367FFFFCA80FFFFEAC0
:102F1C000320A0E10A10A0E104308DE5860000EB4F
:102F2C00002094E504309DE5032082E0002084E538
:102F3C000410A0E100009DE54BF8FFEB000050E30E
:102F4C0004309DE572FFFF1A0370A0E199FFFFEAC0
:102F5C0000009DE5C30000EB00B050E240FFFF1AFB
:102F6C0000509DE5101094E50500A0E10AFAFFEB76
:102F7C000C20A0E3FC30D4E1002085E58030C3E3D5
:102F8C0064FFFFEA0000E0E3FEFEFFEA0C20A0E392
:102F9C0000109DE5FC30D4E1002081E55DFFFFEAE7
:102FAC0000FCFF7F0030A0E370402DE928409FE536
:102FBC000050A0E10100A0E1003084E5A00300FA7C
:102FCC00010070E30200001A003094E5000053E3A6
:102FDC00003085157040BDE81EFF2FE164230020F2
:102FEC0070402DE901E0A0E100C0A0E330409FE576
:102FFC000210A0E10050A0E10320A0E10E00A0E12E
:10300C0000C084E58F0300FA010070E30200001A8F
:10301C00003094E5000053E3003085157040BDE8A6
:10302C001EFF2FE164230020030010E330402DE944
:10303C00FFE001E23A00000A000052E3013042E2F4
:10304C001F00000A0020D0E50E0052E11D00000A0E
:10305C00012080E2060000EA000053E31800000A99
:10306C0000C0D0E50E005CE1012082E2013043E2B9
:10307C001400000A030012E30200A0E1F5FFFF1A9E
:10308C00030053E31100008A000053E32600000AFA
:10309C000020D0E50E0052E10A00000A033080E067
:1030AC00012080E2030000EA0010D0E50E0051E19F
:1030BC00012082E20300000A020053E10200A0E1B9
:1030CC00F8FFFF1A0000A0E33040BDE81EFF2FE11F
:1030DC0000C0A0E10154A0E1FF5C05E20E5085E1C7
:1030EC00055885E100109CE544209FE5051021E082
:1030FC00022081E03C409FE50120C2E1024004E057
:10310C00000054E30C00A0E104C08CE2DFFFFF1AC6
:10311C00043043E2030053E30C00A0E1F0FFFF8A0C
:10312C00D8FFFFEA0230A0E1D4FFFFEA0300A0E1E0
:10313C00E4FFFFEAFFFEFEFE80808080010050E18C
:10314C0070402DE90C00009A023081E0030050E140
:10315C000900002A000052E3021080E00400000A7B
:10316C00032062E001C073E5020053E101C061E598
:10317C00FBFFFF1A7040BDE81EFF2FE10F0052E36A
:10318C000A00008A0030A0E1000052E3F8FFFF0AB9
:10319C00013043E2022081E001C0D1E4010052E1A0
:1031AC0001C0E3E5FBFFFF1A7040BDE81EFF2FE1F5
:1031BC00003081E1030013E32600001A02E0A0E1D5
:1031CC0010C080E2103081E2104013E510400CE595
:1031DC000C4013E50C400CE5084013E508400CE5E9
:1031EC0010E04EE2044013E50F005EE304400CE5F2
:1031FC00103083E210C08CE2F2FFFF8A103042E202
:10320C000F30C3E30F6002E2103083E2030056E399
:10321C00031081E0033080E01000009A0140A0E12F
:10322C0006C0A0E104E043E204C04CE2045094E484
:10323C0003005CE30450AEE5FAFFFF8A04C046E2EB
:10324C0003C0CCE304C08CE20C3083E00C1081E0B2
:10325C00032002E2CBFFFFEA0030A0E1CBFFFFEA44
:10326C000620A0E1C7FFFFEAF0412DE9004051E242
:10327C000250A0E11A00000A000052E31500000AF7
:10328C000060A0E12B0000EB000055E10400A091D0
:10329C000100008AF041BDE81EFF2FE10510A0E1FE
:1032AC000600A0E17AF9FFEB007050E20700A001E4
:1032BC00F7FFFF0A0520A0E10410A0E1DCF3FFEB0F
:1032CC000600A0E10410A0E133F9FFEB0700A0E138
:1032DC00F041BDE81EFF2FE12FF9FFEB0500A0E147
:1032EC00EBFFFFEA0210A0E169F9FFEBE8FFFFEA50
:1032FC0070402DE901E0A0E100C0A0E330409FE563
:10330C000210A0E10050A0E10320A0E10E00A0E11A
:10331C0000C084E5AE0200FA010070E30200001A5E
:10332C00003094E5000053E3003085157040BDE893
:10333C001EFF2FE164230020040011E5000050E380
:10334C00001081B0043011B5030080B0040040E2DD
:10335C001EFF2FE1002902D0B0FBF1F0704708B13D
:10336C004FF0FF3000F01EB80029F8D00246B0FB39
:10337C00F1F000FB11217047002902D090FBF1F015
:10338C0070470028C8BF6FF00040B8BF4FF0004036
:10339C0000F008B80029F4D0024690FBF1F000FBD5
:1033AC0011217047704700BF84B00F4B9A6942F0EF
:1033BC0020029A619A6902F020020192019A9A699C
:1033CC0042F008029A619A6902F008020292029A8B
:1033DC009A6942F004029A619B6903F00403039317
:1033EC00039B04B0704700BF00100240FEE70000D2
:1033FC0008B50B480B4B03600B4B436000238360F9
:10340C00C3604FF48042026143618361C361036214
:10341C0002F058F900B908BDD1210448FFF7E6FFC6
:10342C001404002000540040A086010084700008A1
:10343C0008B50B480B4B03600B4B436000238360B8
:10344C00C3604FF48042026143618361C3610362D4
:10345C0002F038F900B908BDE5210448FFF7C6FFB2
:10346C006804002000580040A08601008470000809
:10347C0008B50B480B4B03604FF4E133436000235A
:10348C008360C36003610C2242618361C36102F0FB
:10349C00A5FA00B908BDF8210348FFF7A7FF00BF44
:1034AC00BC040020003801408470000800B595B0C1
:1034BC0001220A924FF480330B9300210C910E924F
:1034CC000222119212934FF4E01313930AA802F004
:1034DC0015FB48BB0F23059302210691002307938C
:1034EC004FF480630893099305A802F02DFDF8B9F9
:1034FC00102301930023049301A802F007FED8B90E
:10350C0002F0DEFD0E4BA3FB0030800902F0CEFF73
:10351C00042002F0E1FF002211464FF0FF3002F0D0
:10352C0087FF15B05DF804FB9E210648FFF75EFF90
:10353C00AC210448FFF75AFFB3210248FFF756FFAE
:10354C00D34D62108470000808B502F09DFA0C4B44
:10355C0018680023022219468068FCF7F3FFFFF776
:10356C00A5FFFFF721FFFFF743FFFFF761FFFFF711
:10357C007FFF00F06BFC002000F0D6FBFBE700BFE8
:10358C0000000020044B03F5B0725A609A600022D0
:10359C0083F86021704700BF3C0B002008B5014642
:1035AC000148FCF75FFF08BD8871000810B5064C98
:1035BC000648FFF7F3FF2068FFF7F0FF54F8083FC9
:1035CC00002BF5D1002010BDFC0400207C710008FC
:1035DC0038B50546144B1C78230203F518730146C5
:1035EC0012481844FDF77CF9B8B1104B03EB0423D7
:1035FC0093F860323BB10134E4B20B4B1C70042CD9
:10360C0001D900221A70084B1B781B0203F51873A2
:10361C00294606481844FDF775FA034B1A78034BF4
:10362C0083F8602738BD00BFE80100203C0B002068
:10363C0070B504460E4600E001342378202BFBD0F5
:10364C000EBB23BB354605E05D212046FDF794F803
:10365C00441C07D02378C3B15B2BF5D00134202B4D
:10366C00F8D105E00B48FFF799FF204670BD0134F7
:10367C002378202BFBD00135EDB2AE42EAD1002BE2
:10368C00E8D0204670BD0025E4E7002070BD204640
:10369C0070BD00BF90700008F8B50D460378232B61
:1036AC005FD0044600295ED000285ED0262B5DD06A
:1036BC005B2B44D02021FDF75FF80646002846D04E
:1036CC005EB1371B3A4629462046FDF7C3FA20B9AE
:1036DC00EB5D202B4CD0002B4CD0002E4CD12D214F
:1036EC002846FDF749F8002848D02046FDF782FA15
:1036FC00024629462046FDF7ADFA80BB2046F8BDB0
:10370C002278202A10D07C2A0ED05D2A0CD05AB1F7
:10371C0021781A7891420BD1013413F8012F202A09
:10372C00EED0002AF4D1EBE7581B201AF8BD013477
:10373C0023785D2B01D07C2BF9D15D2B05D014F8AF
:10374C00013F202BFBD02B46E2E70020F8BD294699
:10375C002046FDF7C5F80028B2D12046F8BD002060
:10376C00F8BD0846F8BD0846F8BDF8BD0846F8BDDA
:10377C002046F8BD2046F8BD0020F8BD0020F8BD5D
:10378C002DE9F04180461A4F2CE001212846FFF725
:10379C004FFFB0B93846BDE8F08101212046FFF754
:1037AC0047FF044614B123782D2BF6D0A5B12E7803
:1037BC00232E04D021462846FFF76EFF78B1232E26
:1037CC00E3D001212046FFF733FF044601212846B0
:1037DC00FFF72EFF0546E5E7002CE8D1DAE757F8AE
:1037EC00083F13B13D684446E1E70027D2E700BF2C
:1037FC00FC0400202DE9F84304460F46374A1346D3
:10380C00002143F8601B13614DE00422344920462B
:10381C00FDF720FA18B9631C47F8043B42E02F4E21
:10382C0033680433214656F82300FDF76BF93368EF
:10383C005A1C3260043356F823802046FDF7DAF91F
:10384C00002308F80030D6F8008008F1030356F87E
:10385C0023902046FDF7CEF90130484408F10408C6
:10386C0046F828001EE01D4E3368A5EB040804330F
:10387C004246214656F82300FDF77EFA33685A1C5F
:10388C003260043356F82330002203F808203368E2
:10389C00DA1C56F8221008F101020A44043346F8E7
:1038AC0023206C1C8DB120212046FCF765FF0546BA
:1038BC000028AAD004220A492046FDF7CBF900289B
:1038CC00D1D1013447F8044BEBE7044A13680433B5
:1038DC0052F8233000221A70BDE8F8833C0B00200C
:1038EC007471000810B58AB004462822002168467D
:1038FC00FCF718FD2046FFF76BFE69462046FFF7E4
:10390C0079FF2046FFF73CFF70B14368084951F836
:10391C00100B984720B10748FFF740FE0AB010BDC6
:10392C000548FFF73BFEF9E70448FFF737FEF5E7DC
:10393C003C0B0020E8700008047100081C710008A2
:10394C0008B5FCF7DDFD08BD254B9A6803F5B0738F
:10395C009A4243D030B5C1B017E02248FFF71EFEA3
:10396C001F4A93680133936015E00820FFF7E8FFC6
:10397C00013CA4B2002CF8D1194B9A6803F5B07332
:10398C009A4229D11378202B26D1154B9A6803F52E
:10399C00B0739A42E1D0124DAC6821466846FDF7EF
:1039AC00B1F8013CAC606B68013B6B606846FDF79D
:1039BC0021F9421C69462046FCF73CFC0A48FFF7FB
:1039CC00EDFD6846FFF7EAFD0848FFF7E7FD68469E
:1039DC00FDF710F984B2CDE741B030BD704700BFA0
:1039EC003C0B0020147200086C7100087071000808
:1039FC0038B503E0013B284A82F86037264A92F832
:103A0C006037194602EB032292F860220AB9002BA8
:103A1C00F0D1214B03EB012191F86032002B39D00E
:103A2C001D4B9868FDF7E6F8044603E02020FFF7ED
:103A3C0087FF013C002CF9DC1848FDF7DBF8044645
:103A4C0003E01748FFF7AAFD013C002CF9DC124CEF
:103A5C0094F86017090201F5187104F5B07521444A
:103A6C002846FDF74FF894F86007000200F518702F
:103A7C002044FDF7BFF82844A06060602846FFF79B
:103A8C008DFD94F860375A1E84F8602713B9042210
:103A9C0084F8602738BD00BF3C0B00209C0C002034
:103AAC006C71000808B54138032830D8DFE800F005
:103ABC0002060A1C0020FFF79BFF08BD0120FFF740
:103ACC0097FF08BD124B9B681B7803B31B20FFF7B5
:103ADC0037FF5B20FFF734FF4320FFF731FF0C4A21
:103AEC0093680133936008BD094B9A6803F5B07372
:103AFC009A420CD01B20FFF723FF5B20FFF720FF1F
:103B0C004420FFF71DFF024A9368013B936008BDF8
:103B1C003C0B002020281ED070B5C0B004461C4EB3
:103B2C00B56829466846FCF7EDFF01356846FDF798
:103B3C0061F8421C69462846FCF77CFBB3681C7094
:103B4C002046FFF7FDFE6846FFF728FD6846FDF7A7
:103B5C0051F884B211E00E4B9B681A78202A06D0DB
:103B6C000C4A934203D013F8013C202BD4D170475C
:103B7C000820FFF7E5FE013CA4B2002CF8D1044B61
:103B8C009A6801329A605A6801325A6040B070BD2E
:103B9C003C0B00209C0C002010B4064C2388064AD9
:103BAC0042F8330002EBC3025160013323802046FC
:103BBC0010BC7047EA010020FC04002010B50C4B2F
:103BCC005B669B660B4C40F2647200212046FCF74E
:103BDC00A9FB4FF4C86200210748FCF7A3FB074B75
:103BEC00E360FFF7CFFC06490648FFF7D5FF10BD91
:103BFC00A01200203C0B0020FC040020D470000814
:103C0C00B9350008E070000800E01846094B5A6E00
:103C1C009B6E9A4204D1431E9BB20028F5D170478B
:103C2C0012F8010B034B43F8642F9A42F7D1014B66
:103C3C005B667047A012002008B5FFF7E5FF08BDD2
:103C4C0010B520E00022354B1A70354B5A6803F53D
:103C5C00B0739A423AD0A3F5B07393F86031202B2D
:103C6C0034D0531E2E494B6012F8013C202B32D01D
:103C7C002C4C2046FFF736FEFFF784FCA4F5B074FD
:103C8C00E068FFF78BFC0020FFF7D6FF0346002807
:103C9C0042D00A2BD6D00D2BD4D0A3F10802D2B22D
:103CAC00172A1FD800211D4A1170082B17D01B2B67
:103CBC00E9D14FF6FF70FFF7BFFF5B28E3D14FF65A
:103CCC00FF70FFF7B9FFFFF7EDFEDCE7144BD86888
:103CDC00FFF764FCD7E7002302F8013CC8E7FFF7C5
:103CEC0033FED0E7A3F12002D2B25E2ACBD8232B2D
:103CFC000ED00A4A1278012A0AD0094A516802F5F4
:103D0C00B0728A1AFE2ABEDC1846FFF703FFBAE728
:103D1C000122024B1A70B6E710BD00BFE90100206A
:103D2C003C0B00209C0C002008B5FFF747FFFFF769
:103D3C0087FFFCE770B505460C461EE0A2B229468B
:103D4C00FDF71AF8214B9A6E22449A662544643387
:103D5C009A4237D1643B9B6600240DE0013A121A5B
:103D6C00944222D8A2B22946FDF706F82544174AF8
:103D7C00936E1C449466002434B3144B986E5A6EA4
:103D8C009042EBD3021964339A42D7D9104E321AAF
:103D9C0092B22946FCF7F0FFA6F164027368F11A9F
:103DAC000D441C44A41B9266E6E792B22946FCF72C
:103DBC00E3FF064A536E013B916E591A0D4493660C
:103DCC000024D9E70024D7E770BD00BFA012002063
:103DDC0004130020002300E001339342FCDB104667
:103DEC00704710B5084614464FF47A72A1B200F031
:103DFC0017FA204610BD000008B503460B4A12689E
:103E0C0042B10A4A106803446A46934206D8074AEC
:103E1C00136008BD0649054A1160F2E7FCF7C2F9C8
:103E2C000C2303604FF0FF3008BD00BFEC010020F5
:103E3C00682300204FF0FF3070474FF400534B6065
:103E4C0000207047012070470020704710B5094CC6
:103E5C0000220949204602F07BFB0849204602F06B
:103E6C008EFB0749204603F053F8204602F08EFBE8
:103E7C0010BD00BF0C13002064000020B400002013
:103E8C009800002002680E4B9A4200D0704700B593
:103E9C0083B003F5DA33DA6942F40002DA61DB69E4
:103EAC0003F400030193019B00221146142002F03D
:103EBC00BFFA142002F0EEFA03B05DF804FB00BF69
:103ECC00005C004008B500F22C41D0F85C0402F014
:103EDC0076FB08BD08B500EB4113D3F83C22D0F8B3
:103EEC005C0402F099FB08BD08B500EB4113DA6BDA
:103EFC00D0F85C0402F0C5FB08BD08B5D0F85C0432
:103F0C0002F049FC08BD10B504460121D0F85C0450
:103F1C0002F02FFCD4F85C0402F00CFC10BD000085
:103F2C0010B50446D0F85C0402F026FCA36923B15A
:103F3C00024A136943F00603136110BD00ED00E063
:103F4C0008B5D0F85C0402F020FC08BD10B504469E
:103F5C002048C0F85C44C4F820021F4B03600823BF
:103F6C004360022383600323C36000238361C36126
:103F7C00036200F05FFA30BB182300221146D4F81C
:103F8C00200200F0BFFE582300228021D4F820022A
:103F9C0000F0B8FEC02300228121D4F8200200F0EA
:103FAC00B1FE4FF4887300220121D4F8200200F0F6
:103FBC00A9FE4FF4807300228221D4F8200200F075
:103FCC00A1FE002010BD4FF497710448FFF70EFAC4
:103FDC00D2E700BF30150020005C00408C71000857
:103FEC0008B5D0F8200200F090FA18B1022803D0DE
:103FFC00022008BD002008BD012008BD10B51C46DC
:10400C0013462246D0F8200200F0AAFA18B1022872
:10401C0003D0022010BD002010BD012010BD08B53A
:10402C00D0F8200200F0C5FA18B1022803D0022003
:10403C0008BD002008BD012008BD08B5D0F820023D
:10404C0000F00BFE18B1022803D0022008BD00209E
:10405C0008BD012008BD08B5D0F8200200F02BFEE9
:10406C0018B1022803D0022008BD002008BD012091
:10407C0008BDD0F8202211F0800F06D101F07F018D
:10408C0002EB411191F82A02704701F07F0302EB19
:10409C00431191F82A00704708B5D0F8200200F0BF
:1040AC004BFA18B1022803D0022008BD002008BD2D
:1040BC00012008BD08B5D0F8200200F0C7FA18B1ED
:1040CC00022803D0022008BD002008BD012008BD35
:1040DC0008B5D0F8200200F093FA18B1022803D0EA
:1040EC00022008BD002008BD012008BD08B5D0F88D
:1040FC00200200F0A4FA08BD00487047F00100202F
:10410C007047704712230B800048704780000020D6
:10411C0004230B80004870479400002008B50A4621
:10412C0028B10549054802F0A5FD034808BD024920
:10413C00024802F09FFDF8E790190020CC710008AE
:10414C0010B5044C0A462146034802F093FD204664
:10415C0010BD00BF90190020B871000808B50A46C0
:10416C0028B10549054802F085FD034808BD024900
:10417C00024802F07FFDF8E790190020E471000876
:10418C0008B50A4628B10549054802F073FD0348F5
:10419C0008BD0249024802F06DFDF8E790190020B5
:1041AC009C71000808B50A4628B10549054802F07B
:1041BC0061FD034808BD0249024802F05BFDF8E7C7
:1041CC0090190020A871000800207047002070474B
:1041DC0070B504460E46074D0146284602F0A7FE70
:1041EC00284602F0C1FE31682046FFF7A3FD0020EF
:1041FC0070BD00BF0C13002010B5064C0022064900
:10420C00204602F08CFE0549204602F090FE00206C
:10421C0010BD00BF0C130020781F0020901B002045
:10422C002DE9F84380460F461546174BD3F8186214
:10423C0001F048FC044601F045FC001BA84220D2CA
:10424C00D6F81432002BF6D1402F0ED9DFF8389067
:10425C0040224146484602F062FE484602F06DFE9E
:10426C00403FBFB208F14008E5E7074C3A464146EB
:10427C00204602F054FE204602F05FFE0020BDE80E
:10428C00F8830220BDE8F8830C1300207047FEE78A
:10429C00FEE7FEE7FEE770477047704708B501F090
:1042AC0005FC02F02AF908BD08B5024800F023FC11
:1042BC0008BD00BF3015002000B583B0244B9A69AF
:1042CC0042F001029A619A6902F001020092009A8E
:1042DC00DA6942F08052DA61DB6903F080530193B2
:1042EC00019B032002F092F8002211466FF00B00A4
:1042FC0002F09EF8002211466FF00A0002F098F8C6
:10430C00002211466FF0090002F092F800221146CB
:10431C006FF0040002F08CF8002211466FF00300DD
:10432C0002F086F8002211466FF0010002F080F8CE
:10433C00002211464FF0FF3002F07AF8054A53681C
:10434C0023F0E06343F00073536003B05DF804FBAB
:10435C00001002400000014000B587B003681A4A03
:10436C00934205D0194A934217D007B05DF804FB6D
:10437C00C0230293122303930323059302A9144829
:10438C0001F04EFF134BDA6942F40012DA61DB697B
:10439C0003F400130093009BE7E74FF44063029390
:1043AC00122303930323059302A9094801F038FF54
:1043BC00084BDA6942F48002DA61DB6903F48003AA
:1043CC000193019BD1E700BF00540040005800400E
:1043DC00000C0140001002400268144B9A4200D0BD
:1043EC00704710B586B003F558439A6942F4804281
:1043FC009A619B6903F480430193019B4FF4007312
:10440C0002930223039303230593094C02A920462C
:10441C0001F006FF4FF4806302930023039304938F
:10442C0002A9204601F0FCFE06B010BD0038014088
:10443C0000080140002866D0F0B587B0044690F81B
:10444C002934C3B1032384F82934206800F082FC9A
:10445C00254655F8107B6E460FCD0FC62B68336082
:10446C00231D0ECB384600F065FC0021206800F0BF
:10447C007BFC002315E080F82834FFF703FDE1E70F
:10448C0004EB4312012182F8291082F8283093861C
:10449C00002182F82B109163D1639A1C5201A15018
:1044AC0001330E2BECD9002312E004EB4312002154
:1044BC0082F8291282F82832938682F82B12C2F8DD
:1044CC003812C2F83C1203F112025201A15001330E
:1044DC000E2BEAD9254655F8107B6E460FCD0FC62C
:1044EC002B683360231D0ECB384600F03FFC0025B3
:1044FC0084F82450012384F82934206800F04FFFFD
:10450C00284607B0F0BD0120704790F82834012BE5
:10451C0001D10220704710B50446012180F82814FF
:10452C00FFF7EFFD206800F038FF206800F009FC71
:10453C00002084F8280410BD90F82834012B01D1F8
:10454C000220704710B50446012380F8283480F807
:10455C002410006800F01BFF002084F8280410BD14
:10456C0038B54DB2002D12DB01F07F04640104F567
:10457C000A74044401F07F012170ED0F6570226113
:10458C00E37090F82834012B07D1022038BD01F0DC
:10459C007F04640128340444ECE70546012380F8C9
:1045AC0028342146006800F0F7FB002085F8280429
:1045BC0038BD4AB2002A10DB01F07F035B0103F522
:1045CC000A73034401F07F011970D20F5A7090F8EE
:1045DC002824012A07D10220704701F07F035B01D8
:1045EC0028330344EEE710B50446012280F8282452
:1045FC001946006800F069FD002084F8280410BDFD
:10460C0070B501F07F056C0104F50A710144044496
:10461C00C4F83C2205F11202520186188350002383
:10462C00736084F8293284F8285225B1006800F0B0
:10463C00D3FE002070BD006800F0CEFEF9E701F05B
:10464C000F01123100EB41118888704770B501F0F1
:10465C007F056C0104F1280101440444E263AA1CA7
:10466C0052018618835000237360012384F829308B
:10467C0084F8285025B1006800F0AEFE002070BD13
:10468C00006800F0A9FEF9E770B582B0054600237A
:10469C00ADF80630ADF8043095E103889BB223F4F5
:1046AC00E14323F070039BB203802A68B2F85030C8
:1046BC009BB295F8281003EBC103023302EB4303C2
:1046CC00D3F80034C3F309036B64EA6B1344EB6354
:1046DC0000212846FFF708FC95F82430002B00F049
:1046EC0072812B6C002B40F06E812A6895F8243077
:1046FC0043F08003A2F84C30002385F8243062E1AB
:10470C00B0F850309BB295F8282203EBC203063365
:10471C0000EB4303D3F80034C3F30903C5F8443268
:10472C00B5F82C2205F22C4100F0BCFF2A68138846
:10473C0023F070031B051B0D13802846FFF7C2FBEB
:10474C0041E1B5F82C22D5F83C1200F0ABFFD5F8BE
:10475C004422D5F83C321344C5F83C3272E1C1F323
:10476C004F0211F0010F01D0013292B2920292B2BB
:10477C00C3F8002484E130F824309BB2ADF8043047
:10478C00BDF8043013F4004F36D1BDF8043013F0EB
:10479C00800F00F018812A6832F824309BB223F481
:1047AC00E14323F070039BB222F8243005EB441351
:1047BC0093F83230002B40F0B6802868B0F85030B7
:1047CC009BB205EB441292F8282003EBC203023390
:1047DC0000EB4303D3F80034C3F30903A21C05EB2D
:1047EC0042125360002B00F0CD8005EB44118A8DF2
:1047FC00C96B00F0DCFDC5E030F8243023F0700309
:10480C001B051B0D20F8243005EB441393F83232B2
:10481C00DBB92868B0F850309BB205EB441292F823
:10482C00282203EBC203063300EB4303B3F8006406
:10483C00C6F309068EB305EB44113346B1F82C22AE
:10484C00D1F83C1200F02EFF27E0286805EB44134A
:10485C0093F8282230F8223013F4804F43D0B0F86C
:10486C0050309BB203EBC203023300EB4303B3F8AB
:10487C000064C6F3090666BB2A6805EB441393F87B
:10488C00281232F8213023F0F0031B051B0D43F4E2
:10489C00004343F0C00322F8213004F112035B0102
:1048AC00E9184A6832444A6005EB4411D1F83C22BD
:1048BC003244C1F83C22EB581BB1D1F838128E426D
:1048CC0029D205EB441393F828122846FFF702FB74
:1048DC005BE705EB44113346B1F82E22D1F83C12BC
:1048EC0000F0E0FEC8E7B0F850309BB203EBC20317
:1048FC00063300EB4303B3F80064C6F30906002E3D
:10490C00BAD005EB44113346B1F83022D1F83C1241
:10491C0000F0C8FEB0E705EB441191F828122846C8
:10492C00FFF76EFE31E7286805EB441393F8282057
:10493C0030F8223013F0400F00F0B880B0F850304F
:10494C009BB203EBC203023300EB4303D3F80034F6
:10495C00C3F30903A21C05EB42125360002B40F079
:10496C009E802A6805EB441393F8281032F8213006
:10497C0023F0F0031B051B0D43F4404343F080036D
:10498C0022F821302A68B2F850309BB205EB441063
:10499C0090F8281003EBC103023302EB4303D3F866
:1049AC000024C2F30902A31C5B01E9184A60C16B25
:1049BC000A44C263EB58002B40F0928090F8281008
:1049CC002846FFF791FA2868B0F844309BB2ADF84E
:1049DC00063013F4004F00F08B80BDF8064014F045
:1049EC000F047FF4C8AEBDF8063013F0100F3FF47F
:1049FC0054AE03889BB2ADF80430BDF8043013F408
:104A0C00006F7FF47DAEBDF8043013F4004FDAD0A4
:104A1C00038823F070031B051B0D03802868B0F876
:104A2C0050309BB295F8282203EBC203063300EBFF
:104A3C004303D3F80034C3F30903C5F84432002B05
:104A4C007FF47FAE00212846FFF744FA2A68B2F8BB
:104A5C0050309BB2063302EB4303D5F838123E2993
:104A6C007FF67DAEC1F34F1211F01F0F01D1013A49
:104A7C0092B26FEAC2626FEA524292B2C3F8002459
:104A8C002A6813889BB223F4804323F0700383F4C9
:104A9C00405343F4004343F08003138093E705EB4A
:104AAC004411CA8DC96B00F082FC5AE7B0F8503043
:104ABC009BB203EBC203063300EB4303D3F8003481
:104ACC00C3F30903A21C05EB42125360002B3FF405
:104ADC0048AF05EB44110A8EC96B00F068FC40E747
:104AEC0005EB441494F828102846FFF7AFFD6AE74D
:104AFC00002002B070BD10B50446006800F051FCF7
:104B0C0010F4004F45D1206800F04BFC10F4806F7E
:104B1C0043D1206800F045FC10F4804F08D0226887
:104B2C00B2F844309BB223F480439BB2A2F84430D9
:104B3C00206800F036FC10F4005F08D02268B2F850
:104B4C0044309BB223F400539BB2A2F8443020684B
:104B5C0000F027FC10F4805F30D1206800F021FCBD
:104B6C0010F4006F49D1206800F01BFC10F4007F9A
:104B7C0066D1206800F015FC10F4807F08D0226804
:104B8C00B2F844309BB223F480739BB2A2F8443049
:104B9C0010BD2046FFF778FDB5E72268B2F8443027
:104BAC009BB223F480639BB2A2F844302046FFF7FB
:104BBC00AAF900212046FFF7BFFCAAE72268B2F849
:104BCC0040309BB223F004039BB2A2F84030226821
:104BDC00B2F840309BB223F008039BB2A2F84030ED
:104BEC002046FFF7ADF92268B2F844309BB223F4AB
:104BFC0080539BB2A2F84430AFE72268B2F8403041
:104C0C009BB243F00803A2F840302268B2F844305B
:104C1C009BB223F400639BB2A2F844302268B2F832
:104C2C0040309BB243F00403A2F84030206800F0FF
:104C3C00B8FB10F4805F96D12046FFF771F992E72C
:104C4C002268B2F844309BB223F400739BB2A2F8F2
:104C5C0044302046FFF751F98BE738B54AB2002AA9
:104C6C0010DB4B0103F50A73034401249C7001F023
:104C7C007F041C70D20F5A7090F82824012A07D197
:104C8C00022038BD01F07F035B0128330344ECE7BD
:104C9C000546012280F828241946006800F0F7FA2E
:104CAC001CB1002085F8280438BD05F22C41286879
:104CBC0000F07BFBF5E710B54AB2002A10DB4B0184
:104CCC0003F50A73034400249C7001F07F011970F2
:104CDC00D20F5A7090F82824012A07D1022010BD57
:104CEC0001F07F035B0128330344ECE70446012207
:104CFC0080F828241946006800F000FB002084F896
:104D0C00280410BD11F0800F0CD001F07F01490177
:104D1C00283101445AB101228A72CB801B0C0B81C1
:104D2C0000207047490101F50A710144F2E78A72CB
:104D3C008B80F5E784B001A880E80E00002004B059
:104D4C007047B0F840309BB243F43F43A0F840307A
:104D5C0000207047B0F8403023F474535B045B0CB4
:104D6C00A0F84030002070470020704784B038B560
:104D7C0005AC84E80E000123A0F840300024A0F814
:104D8C004040A0F84440A0F85040FFF7DAFF20461E
:104D9C00BDE8384004B0704710B4CB78032B0FD863
:104DAC00DFE803F0026E55610A7830F822309BB2CE
:104DBC0023F4EC4323F0700343F4007320F8223007
:104DCC000A7830F8223023F0F0031B051B0D134337
:104DDC0043F4004343F0800320F822308B7A002BFD
:104DEC0040F0B2804B78002B57D0B0F850309BB2CB
:104DFC000A7803EBC20300EB43038A885208520083
:104E0C00C3F800240A7830F8223013F0400F0BD08E
:104E1C0030F8223023F0F0031B051B0D43F4004344
:104E2C0043F0C00320F822300A7830F822309BB2CD
:104E3C0023F4E04323F0400383F0200343F40043C6
:104E4C0043F0800320F82230002010BC70470A7811
:104E5C0030F822309BB223F4EC4323F070039BB266
:104E6C0020F82230ACE70A7830F822309BB223F4D9
:104E7C00EC4323F0700343F4C06320F822309FE727
:104E8C000A7830F822309BB223F4EC4323F0700301
:104E9C0043F4806320F8223092E7B0F850309BB294
:104EAC000A7803EBC203043300EB43038A885208ED
:104EBC005200C3F80024B0F850309BB20A7803EBD0
:104ECC00C203063300EB43030C693E2C30D9C4F308
:104EDC004F1214F01F0F01D1013A92B26FEAC26265
:104EEC006FEA524292B2C3F800240A7830F82230AA
:104EFC0013F4804F0BD030F8223023F0F0031B0555
:104F0C001B0D43F4404343F0800320F822300A7811
:104F1C0030F822309BB223F4804323F0700383F4E7
:104F2C00405343F4004343F0800320F822308BE7D6
:104F3C00C4F34F0214F0010F01D0013292B292026D
:104F4C0092B2C3F80024D0E70A7830F8223023F468
:104F5C00F8731B051B0D43F4014343F0800320F849
:104F6C002230B0F850309BB20A7803EBC20300EB4E
:104F7C004303CA8852085200C3F80024B0F85030DA
:104F8C009BB20A7803EBC203043300EB43030A8998
:104F9C0052085200C3F800244B78002B4BD10A78EE
:104FAC0030F8223013F4804F0BD030F8223023F03D
:104FBC00F0031B051B0D43F4404343F0800320F822
:104FCC0022300A7830F8223013F0400F0BD030F832
:104FDC00223023F0F0031B051B0D43F4004343F078
:104FEC00C00320F822300A7830F8223023F0F00386
:104FFC001B051B0D43F4004343F0C00320F8223083
:10500C000A7830F822309BB223F4804323F07003EB
:10501C0083F4405348F28004234320F822300A786A
:10502C0030F822309BB223F4E04323F040032343B7
:10503C0020F8223008E70A7830F8223013F4804F39
:10504C000BD030F8223023F0F0031B051B0D43F47A
:10505C00404343F0800320F822300A7830F82230A5
:10506C0013F0400F0BD030F8223023F0F0031B0567
:10507C001B0D43F4004343F0C00320F822300A78A0
:10508C0030F8223023F0F0031B051B0D43F4404392
:10509C0043F0800320F822300B7830F8232092B2B2
:1050AC0022F4E04222F0400248F28004224320F82D
:1050BC0023200A7830F822309BB223F4804323F06B
:1050CC007003234320F82230BEE68B7A002B44D1A8
:1050DC004B780BB30A7830F8223013F0400F0BD01A
:1050EC0030F8223023F0F0031B051B0D43F4004372
:1050FC0043F0C00320F822300A7830F822309BB2FB
:10510C0023F4E04323F0400343F4004343F08003D3
:10511C0020F82230002070470A7830F8223013F43F
:10512C00804F0BD030F8223023F0F0031B051B0D01
:10513C0043F4404343F0800320F822300A7830F8DF
:10514C0022309BB223F4804323F0700343F40043DA
:10515C0043F0800320F82230DCE710B44B78002BAE
:10516C004BD10A7830F8223013F4804F0BD030F842
:10517C00223023F0F0031B051B0D43F4404343F096
:10518C00800320F822300A7830F8223013F0400FD8
:10519C000BD030F8223023F0F0031B051B0D43F429
:1051AC00004343F0C00320F822300A7830F8223054
:1051BC0023F0F0031B051B0D43F4004343F0C00325
:1051CC0020F822300B7830F8232092B222F480425F
:1051DC0022F0700248F28004224320F823200A783F
:1051EC0030F822309BB223F4E04323F040032343F6
:1051FC0020F82230002010BC70470A7830F822309A
:10520C0013F4804F0BD030F8223023F0F0031B0541
:10521C001B0D43F4404343F0800320F822300A78FE
:10522C0030F8223013F0400F0BD030F8223023F03E
:10523C00F0031B051B0D43F4004343F0C00320F89F
:10524C0022300A7830F8223023F0F0031B051B0DB6
:10525C0043F4404343F0800320F822300B7830F8BD
:10526C00232092B222F4E04222F0400248F2800461
:10527C00224320F823200A7830F822309BB223F402
:10528C00804323F07003234320F82230B2E70A78DE
:10529C008AB14B7813BB30F822309BB223F4804395
:1052AC0023F0700383F4805343F4004343F08003F2
:1052BC0020F8223010E030F822309BB223F48043E7
:1052CC0023F0400383F4805383F0100343F4004332
:1052DC0043F0800320F822300020704730F8223051
:1052EC009BB223F4E04323F0400383F0100343F418
:1052FC00004343F0800320F82230EDE74B781BB3DA
:10530C000A7830F8223013F0400F0BD030F82230EE
:10531C0023F0F0031B051B0D43F4004343F0C003C3
:10532C0020F822300A7830F822309BB223F4E04384
:10533C0023F0400383F0300343F4004343F0800335
:10534C0020F82230002070470A7830F8223013F40D
:10535C00804F0BD030F8223023F0F0031B051B0DCF
:10536C0043F4404343F0800320F822300A7830F8AD
:10537C0022309BB223F4804323F0700383F4405318
:10538C0043F4004343F0800320F82230DAE711B9EC
:10539C008023A0F84C30002070470020704700207C
:1053AC007047B0F8440080B270470020704701335A
:1053BC005B1000EB420202F5806263B110B40C7812
:1053CC00487844EA002422F8044B0231013B002BBC
:1053DC00F5D110BC70477047F8B58A694C78012C30
:1053EC0035D00B699A4240F2F080D21A8A618A7ADF
:1053FC00002A40F0FA80B0F8502092B20C7802EB00
:10540C00C402063200EB42023E2B40F2E280C3F3B0
:10541C004F1413F01F0F01D1013CA4B26FEAC46406
:10542C006FEA5444A4B2C2F800440A7830F822302F
:10543C009BB223F4804323F0700383F4405343F472
:10544C00004343F0800320F822300020F8BD0F69A0
:10545C00BA4226D9D21B8A610E4605468B7A23B3F3
:10546C000B7830F8232012F0400F6CD0002C39D17F
:10547C00B0F8502092B202EBC303063300EB4303A7
:10548C003E2F23D9C7F34F1217F01F0F01D1013A4A
:10549C0092B26FEAC2626FEA524292B2C3F800242F
:1054AC002AE000238B611746D6E7BBB28A8849698C
:1054BC00FFF77DFFB5F850309BB2327803EBC20397
:1054CC00023305EB4303C3F800742BE0C7F34F0220
:1054DC0017F0010F01D0013292B2920292B2C3F8CE
:1054EC00002409E0B0F8502092B202EBC30302335F
:1054FC0000EB4303C3F800743289BBB271692846D0
:10550C00FFF755FF7378002B4FD1327835F82230E6
:10551C0023F0F0031B051B0D43F4004343F0C003C1
:10552C0025F82230327835F822309BB223F4E04350
:10553C0023F0400383F0300343F4004343F0800333
:10554C0025F8223081E724BBB0F8502092B202EB50
:10555C00C303023300EB43033E2F0ED9C7F34F12A4
:10556C0017F01F0F01D1013A92B26FEAC2626FEAD3
:10557C00524292B2C3F8002415E0C7F34F0217F061
:10558C00010F01D0013292B2920292B2C3F8002400
:10559C0009E0B0F8502092B202EBC303023300EBE7
:1055AC004303C3F80074F288A7E7012BBAD1327811
:1055BC0035F8223023F0F0031B051B0D43F4404358
:1055CC0043F0800325F82230ACE700238B611346AF
:1055DC000DE7C3F34F0413F0010F01D00134A4B253
:1055EC00A402A4B2C2F800441FE7C4B9B0F850201A
:1055FC0092B20C7802EBC402023200EB42023E2B58
:10560C0029D9C3F34F1413F01F0F01D1013CA4B2DD
:10561C006FEAC4646FEA5444A4B2C2F800444A78F6
:10562C008ABBB0F8502092B20C7802EBC40206325E
:10563C0000EB42023E2B1AD9C3F34F1413F01F0F89
:10564C0001D1013CA4B26FEAC4646FEA5444A4B221
:10565C00C2F80044E9E6C3F34F0413F0010F01D084
:10566C000134A4B2A402A4B2C2F80044D7E7C3F335
:10567C004F0413F0010F01D00134A4B2A402A4B260
:10568C00C2F80044D1E6012A7FF4CFAEB0F8502026
:10569C0092B20C7802EBC402023200EB4202C2F866
:1056AC000034C2E601335B1000EB420202F580626B
:1056BC0004E0106821F8020B013B0432002BF8D1F6
:1056CC0070470000002800F0A28070B5044690F8E6
:1056DC003D30002B4FD0242384F83D3022681368D2
:1056EC0023F00103136000F0F1FC62684A4B9A420C
:1056FC0046D84A4B98428CBF00230123002B40F024
:10570C008880474BA3FB00239B0C226853602168C5
:10571C006568414A954239D801330B622268616849
:10572C003D4B99423CD801384900B0FBF1F00130B7
:10573C00C0F30B00042838BF0420D0612268E36951
:10574C00216A0B43136022682369E1680B43936061
:10575C0022686369A1690B43D3602268136843F024
:10576C000103136000202064202384F83D30206363
:10577C0084F83E0070BD80F83C30FEF7EDFDAAE7E2
:10578C00284B98428CBF00230123B7E74FF4967245
:10579C0002FB03F3244AA2FB03239B090133BCE75E
:1057AC00A568BDB9431E01EB4106B3FBF6F301330B
:1057BC00C3F30B03B3FA83F35B0933BBC5B9431EC5
:1057CC0001EB4100B3FBF0F00130C0F30B0040F4EF
:1057DC000040B2E7431E01EB810606EB8606B3FBE5
:1057EC00F6F30133C3F30B03B3FA83F35B09E4E77A
:1057FC00431E01EB810000EB8000B3FBF0F00130A5
:10580C00C0F30B0040F4404097E7012095E70120DE
:10581C007047012070BD00BFA08601007F841E0070
:10582C0083DE1B43FF083D00D34D62102DE9F0478A
:10583C0005460268136923F44053C1680B43136196
:10584C00836802691343426913430168CA6822F4EE
:10585C00B05222F00C021343CB600268536923F45C
:10586C00407381690B435361D0F80080594B9845C4
:10587C0057D000F02BFC00EB800000EB80006C6834
:10588C00A400B0FBF4F4544FA7FB043464092601C4
:10589C0000F01CFC00EB800000EB80006C68A400A6
:1058AC00B0FBF4FA00F012FC00EB800000EB80007F
:1058BC006C68A400B0FBF4F4A7FB043464094FF04B
:1058CC00640909FB14A424013234A7FB04346409D1
:1058DC0004F0F004344400F0F9FB00EB800000EB22
:1058EC0080006E68B600B0FBF6F600F0EFFB00EB44
:1058FC00800000EB80006B689B00B0FBF3F0A7FB13
:10590C000030400909FB10694FEA091909F1320905
:10591C00A7FB0937C7F343172744C8F80870BDE83D
:10592C00F08700F0E3FB00EB800000EB80006C687C
:10593C00A400B0FBF4F4284FA7FB0434640926013F
:10594C0000F0D4FB00EB800000EB80006C68A4003E
:10595C00B0FBF4FA00F0CAFB00EB800000EB800017
:10596C006C68A400B0FBF4F4A7FB043464094FF09A
:10597C00640909FB14A424013234A7FB0434640920
:10598C0004F0F004344400F0B1FB00EB800000EBB9
:10599C0080006E68B600B0FBF6F600F0A7FB00EBDB
:1059AC00800000EB80006B689B00B0FBF3F3A7FB5F
:1059BC0003235B0909FB13694FEA091909F1320941
:1059CC00A7FB0937C7F343172744C8F80870BDE88D
:1059DC00F08700BF003801401F85EB5158B310B55C
:1059EC00044690F839300BB3242384F839302268FC
:1059FC00D36823F40053D3602046FFF717FF2268C7
:105A0C00136923F4904313612268536923F02A032A
:105A1C0053612268D36843F40053D3600020E063E1
:105A2C00202384F8393084F83A3010BD80F83830AF
:105A3C00FEF7D2FCD8E701207047000010B50446F1
:105A4C000E4B18784FF47A73B3FBF0F30C4A1068D2
:105A5C00B0FBF3F000F02AFD68B90F2C01D901203E
:105A6C0010BD002221464FF0FF3000F0E1FC054B49
:105A7C001C60002010BD012010BD00BFA80000203C
:105A8C00B0000020AC00002008B5074A136843F0B2
:105A9C0010031360032000F0B9FC0020FFF7CEFFC9
:105AAC00FEF70AFC002008BD00200240034A1168E2
:105ABC00034B1B780B441360704700BF602300201E
:105ACC00A8000020014B1868704700BF602300201D
